{
  "contractName": "MyToken",
  "abi": [
    {
      "inputs": [],
      "stateMutability": "nonpayable",
      "type": "constructor"
    },
    {
      "anonymous": false,
      "inputs": [
        {
          "indexed": true,
          "internalType": "address",
          "name": "account",
          "type": "address"
        },
        {
          "indexed": true,
          "internalType": "address",
          "name": "operator",
          "type": "address"
        },
        {
          "indexed": false,
          "internalType": "bool",
          "name": "approved",
          "type": "bool"
        }
      ],
      "name": "ApprovalForAll",
      "type": "event"
    },
    {
      "anonymous": false,
      "inputs": [
        {
          "indexed": true,
          "internalType": "address",
          "name": "previousOwner",
          "type": "address"
        },
        {
          "indexed": true,
          "internalType": "address",
          "name": "newOwner",
          "type": "address"
        }
      ],
      "name": "OwnershipTransferred",
      "type": "event"
    },
    {
      "anonymous": false,
      "inputs": [
        {
          "indexed": false,
          "internalType": "address",
          "name": "account",
          "type": "address"
        }
      ],
      "name": "Paused",
      "type": "event"
    },
    {
      "anonymous": false,
      "inputs": [
        {
          "indexed": true,
          "internalType": "address",
          "name": "operator",
          "type": "address"
        },
        {
          "indexed": true,
          "internalType": "address",
          "name": "from",
          "type": "address"
        },
        {
          "indexed": true,
          "internalType": "address",
          "name": "to",
          "type": "address"
        },
        {
          "indexed": false,
          "internalType": "uint256[]",
          "name": "ids",
          "type": "uint256[]"
        },
        {
          "indexed": false,
          "internalType": "uint256[]",
          "name": "values",
          "type": "uint256[]"
        }
      ],
      "name": "TransferBatch",
      "type": "event"
    },
    {
      "anonymous": false,
      "inputs": [
        {
          "indexed": true,
          "internalType": "address",
          "name": "operator",
          "type": "address"
        },
        {
          "indexed": true,
          "internalType": "address",
          "name": "from",
          "type": "address"
        },
        {
          "indexed": true,
          "internalType": "address",
          "name": "to",
          "type": "address"
        },
        {
          "indexed": false,
          "internalType": "uint256",
          "name": "id",
          "type": "uint256"
        },
        {
          "indexed": false,
          "internalType": "uint256",
          "name": "value",
          "type": "uint256"
        }
      ],
      "name": "TransferSingle",
      "type": "event"
    },
    {
      "anonymous": false,
      "inputs": [
        {
          "indexed": false,
          "internalType": "string",
          "name": "value",
          "type": "string"
        },
        {
          "indexed": true,
          "internalType": "uint256",
          "name": "id",
          "type": "uint256"
        }
      ],
      "name": "URI",
      "type": "event"
    },
    {
      "anonymous": false,
      "inputs": [
        {
          "indexed": false,
          "internalType": "address",
          "name": "account",
          "type": "address"
        }
      ],
      "name": "Unpaused",
      "type": "event"
    },
    {
      "inputs": [
        {
          "internalType": "address",
          "name": "account",
          "type": "address"
        },
        {
          "internalType": "uint256",
          "name": "id",
          "type": "uint256"
        }
      ],
      "name": "balanceOf",
      "outputs": [
        {
          "internalType": "uint256",
          "name": "",
          "type": "uint256"
        }
      ],
      "stateMutability": "view",
      "type": "function"
    },
    {
      "inputs": [
        {
          "internalType": "address[]",
          "name": "accounts",
          "type": "address[]"
        },
        {
          "internalType": "uint256[]",
          "name": "ids",
          "type": "uint256[]"
        }
      ],
      "name": "balanceOfBatch",
      "outputs": [
        {
          "internalType": "uint256[]",
          "name": "",
          "type": "uint256[]"
        }
      ],
      "stateMutability": "view",
      "type": "function"
    },
    {
      "inputs": [
        {
          "internalType": "address",
          "name": "account",
          "type": "address"
        },
        {
          "internalType": "uint256",
          "name": "id",
          "type": "uint256"
        },
        {
          "internalType": "uint256",
          "name": "value",
          "type": "uint256"
        }
      ],
      "name": "burn",
      "outputs": [],
      "stateMutability": "nonpayable",
      "type": "function"
    },
    {
      "inputs": [
        {
          "internalType": "address",
          "name": "account",
          "type": "address"
        },
        {
          "internalType": "uint256[]",
          "name": "ids",
          "type": "uint256[]"
        },
        {
          "internalType": "uint256[]",
          "name": "values",
          "type": "uint256[]"
        }
      ],
      "name": "burnBatch",
      "outputs": [],
      "stateMutability": "nonpayable",
      "type": "function"
    },
    {
      "inputs": [
        {
          "internalType": "uint256",
          "name": "id",
          "type": "uint256"
        }
      ],
      "name": "exists",
      "outputs": [
        {
          "internalType": "bool",
          "name": "",
          "type": "bool"
        }
      ],
      "stateMutability": "view",
      "type": "function"
    },
    {
      "inputs": [
        {
          "internalType": "address",
          "name": "account",
          "type": "address"
        },
        {
          "internalType": "address",
          "name": "operator",
          "type": "address"
        }
      ],
      "name": "isApprovedForAll",
      "outputs": [
        {
          "internalType": "bool",
          "name": "",
          "type": "bool"
        }
      ],
      "stateMutability": "view",
      "type": "function"
    },
    {
      "inputs": [],
      "name": "owner",
      "outputs": [
        {
          "internalType": "address",
          "name": "",
          "type": "address"
        }
      ],
      "stateMutability": "view",
      "type": "function"
    },
    {
      "inputs": [],
      "name": "paused",
      "outputs": [
        {
          "internalType": "bool",
          "name": "",
          "type": "bool"
        }
      ],
      "stateMutability": "view",
      "type": "function"
    },
    {
      "inputs": [],
      "name": "renounceOwnership",
      "outputs": [],
      "stateMutability": "nonpayable",
      "type": "function"
    },
    {
      "inputs": [
        {
          "internalType": "address",
          "name": "from",
          "type": "address"
        },
        {
          "internalType": "address",
          "name": "to",
          "type": "address"
        },
        {
          "internalType": "uint256[]",
          "name": "ids",
          "type": "uint256[]"
        },
        {
          "internalType": "uint256[]",
          "name": "amounts",
          "type": "uint256[]"
        },
        {
          "internalType": "bytes",
          "name": "data",
          "type": "bytes"
        }
      ],
      "name": "safeBatchTransferFrom",
      "outputs": [],
      "stateMutability": "nonpayable",
      "type": "function"
    },
    {
      "inputs": [
        {
          "internalType": "address",
          "name": "from",
          "type": "address"
        },
        {
          "internalType": "address",
          "name": "to",
          "type": "address"
        },
        {
          "internalType": "uint256",
          "name": "id",
          "type": "uint256"
        },
        {
          "internalType": "uint256",
          "name": "amount",
          "type": "uint256"
        },
        {
          "internalType": "bytes",
          "name": "data",
          "type": "bytes"
        }
      ],
      "name": "safeTransferFrom",
      "outputs": [],
      "stateMutability": "nonpayable",
      "type": "function"
    },
    {
      "inputs": [
        {
          "internalType": "address",
          "name": "operator",
          "type": "address"
        },
        {
          "internalType": "bool",
          "name": "approved",
          "type": "bool"
        }
      ],
      "name": "setApprovalForAll",
      "outputs": [],
      "stateMutability": "nonpayable",
      "type": "function"
    },
    {
      "inputs": [
        {
          "internalType": "bytes4",
          "name": "interfaceId",
          "type": "bytes4"
        }
      ],
      "name": "supportsInterface",
      "outputs": [
        {
          "internalType": "bool",
          "name": "",
          "type": "bool"
        }
      ],
      "stateMutability": "view",
      "type": "function"
    },
    {
      "inputs": [
        {
          "internalType": "uint256",
          "name": "id",
          "type": "uint256"
        }
      ],
      "name": "totalSupply",
      "outputs": [
        {
          "internalType": "uint256",
          "name": "",
          "type": "uint256"
        }
      ],
      "stateMutability": "view",
      "type": "function"
    },
    {
      "inputs": [
        {
          "internalType": "address",
          "name": "newOwner",
          "type": "address"
        }
      ],
      "name": "transferOwnership",
      "outputs": [],
      "stateMutability": "nonpayable",
      "type": "function"
    },
    {
      "inputs": [
        {
          "internalType": "uint256",
          "name": "",
          "type": "uint256"
        }
      ],
      "name": "uri",
      "outputs": [
        {
          "internalType": "string",
          "name": "",
          "type": "string"
        }
      ],
      "stateMutability": "view",
      "type": "function"
    },
    {
      "inputs": [
        {
          "internalType": "string",
          "name": "newuri",
          "type": "string"
        }
      ],
      "name": "setURI",
      "outputs": [],
      "stateMutability": "nonpayable",
      "type": "function"
    },
    {
      "inputs": [],
      "name": "pause",
      "outputs": [],
      "stateMutability": "nonpayable",
      "type": "function"
    },
    {
      "inputs": [],
      "name": "unpause",
      "outputs": [],
      "stateMutability": "nonpayable",
      "type": "function"
    },
    {
      "inputs": [
        {
          "internalType": "address",
          "name": "account",
          "type": "address"
        },
        {
          "internalType": "uint256",
          "name": "id",
          "type": "uint256"
        },
        {
          "internalType": "uint256",
          "name": "amount",
          "type": "uint256"
        },
        {
          "internalType": "bytes",
          "name": "data",
          "type": "bytes"
        }
      ],
      "name": "mint",
      "outputs": [],
      "stateMutability": "nonpayable",
      "type": "function"
    },
    {
      "inputs": [
        {
          "internalType": "address",
          "name": "to",
          "type": "address"
        },
        {
          "internalType": "uint256[]",
          "name": "ids",
          "type": "uint256[]"
        },
        {
          "internalType": "uint256[]",
          "name": "amounts",
          "type": "uint256[]"
        },
        {
          "internalType": "bytes",
          "name": "data",
          "type": "bytes"
        }
      ],
      "name": "mintBatch",
      "outputs": [],
      "stateMutability": "nonpayable",
      "type": "function"
    }
  ],
  "bytecode": "0x60806040523480156200001157600080fd5b506040518060200160405280600081525062000033816200007560201b60201c565b5062000054620000486200009160201b60201c565b6200009960201b60201c565b6000600360146101000a81548160ff02191690831515021790555062000274565b80600290805190602001906200008d9291906200015f565b5050565b600033905090565b6000600360009054906101000a900473ffffffffffffffffffffffffffffffffffffffff16905081600360006101000a81548173ffffffffffffffffffffffffffffffffffffffff021916908373ffffffffffffffffffffffffffffffffffffffff1602179055508173ffffffffffffffffffffffffffffffffffffffff168173ffffffffffffffffffffffffffffffffffffffff167f8be0079c531659141344cd1fd0a4f28419497f9722a3daafe3b4186f6b6457e060405160405180910390a35050565b8280546200016d906200023e565b90600052602060002090601f016020900481019282620001915760008555620001dd565b82601f10620001ac57805160ff1916838001178555620001dd565b82800160010185558215620001dd579182015b82811115620001dc578251825591602001919060010190620001bf565b5b509050620001ec9190620001f0565b5090565b5b808211156200020b576000816000905550600101620001f1565b5090565b7f4e487b7100000000000000000000000000000000000000000000000000000000600052602260045260246000fd5b600060028204905060018216806200025757607f821691505b602082108114156200026e576200026d6200020f565b5b50919050565b6141af80620002846000396000f3fe608060405234801561001057600080fd5b50600436106101365760003560e01c80636b20c454116100b8578063a22cb4651161007c578063a22cb46514610311578063bd85b0391461032d578063e985e9c51461035d578063f242432a1461038d578063f2fde38b146103a9578063f5298aca146103c557610136565b80636b20c454146102a7578063715018a6146102c3578063731133e9146102cd5780638456cb59146102e95780638da5cb5b146102f357610136565b80632eb2c2d6116100ff5780632eb2c2d6146102035780633f4ba83a1461021f5780634e1273f4146102295780634f558e79146102595780635c975abb1461028957610136565b8062fdd58e1461013b57806301ffc9a71461016b57806302fe53051461019b5780630e89341c146101b75780631f7fdffa146101e7575b600080fd5b61015560048036038101906101509190612895565b6103e1565b60405161016291906128e4565b60405180910390f35b61018560048036038101906101809190612957565b6104aa565b604051610192919061299f565b60405180910390f35b6101b560048036038101906101b09190612b00565b61058c565b005b6101d160048036038101906101cc9190612b49565b610614565b6040516101de9190612bfe565b60405180910390f35b61020160048036038101906101fc9190612d89565b6106a8565b005b61021d60048036038101906102189190612e44565b610736565b005b6102276107d7565b005b610243600480360381019061023e9190612fd6565b61085d565b604051610250919061310c565b60405180910390f35b610273600480360381019061026e9190612b49565b610976565b604051610280919061299f565b60405180910390f35b61029161098a565b60405161029e919061299f565b60405180910390f35b6102c160048036038101906102bc919061312e565b6109a1565b005b6102cb610a3e565b005b6102e760048036038101906102e291906131b9565b610ac6565b005b6102f1610b54565b005b6102fb610bda565b604051610308919061324b565b60405180910390f35b61032b60048036038101906103269190613292565b610c04565b005b61034760048036038101906103429190612b49565b610c1a565b60405161035491906128e4565b60405180910390f35b610377600480360381019061037291906132d2565b610c37565b604051610384919061299f565b60405180910390f35b6103a760048036038101906103a29190613312565b610ccb565b005b6103c360048036038101906103be91906133a9565b610d6c565b005b6103df60048036038101906103da91906133d6565b610e64565b005b60008073ffffffffffffffffffffffffffffffffffffffff168373ffffffffffffffffffffffffffffffffffffffff161415610452576040517f08c379a00000000000000000000000000000000000000000000000000000000081526004016104499061349b565b60405180910390fd5b60008083815260200190815260200160002060008473ffffffffffffffffffffffffffffffffffffffff1673ffffffffffffffffffffffffffffffffffffffff16815260200190815260200160002054905092915050565b60007fd9b67a26000000000000000000000000000000000000000000000000000000007bffffffffffffffffffffffffffffffffffffffffffffffffffffffff1916827bffffffffffffffffffffffffffffffffffffffffffffffffffffffff1916148061057557507f0e89341c000000000000000000000000000000000000000000000000000000007bffffffffffffffffffffffffffffffffffffffffffffffffffffffff1916827bffffffffffffffffffffffffffffffffffffffffffffffffffffffff1916145b80610585575061058482610f01565b5b9050919050565b610594610f6b565b73ffffffffffffffffffffffffffffffffffffffff166105b2610bda565b73ffffffffffffffffffffffffffffffffffffffff1614610608576040517f08c379a00000000000000000000000000000000000000000000000000000000081526004016105ff90613507565b60405180910390fd5b61061181610f73565b50565b60606002805461062390613556565b80601f016020809104026020016040519081016040528092919081815260200182805461064f90613556565b801561069c5780601f106106715761010080835404028352916020019161069c565b820191906000526020600020905b81548152906001019060200180831161067f57829003601f168201915b50505050509050919050565b6106b0610f6b565b73ffffffffffffffffffffffffffffffffffffffff166106ce610bda565b73ffffffffffffffffffffffffffffffffffffffff1614610724576040517f08c379a000000000000000000000000000000000000000000000000000000000815260040161071b90613507565b60405180910390fd5b61073084848484610f8d565b50505050565b61073e610f6b565b73ffffffffffffffffffffffffffffffffffffffff168573ffffffffffffffffffffffffffffffffffffffff16148061078457506107838561077e610f6b565b610c37565b5b6107c3576040517f08c379a00000000000000000000000000000000000000000000000000000000081526004016107ba906135fa565b60405180910390fd5b6107d085858585856111ab565b5050505050565b6107df610f6b565b73ffffffffffffffffffffffffffffffffffffffff166107fd610bda565b73ffffffffffffffffffffffffffffffffffffffff1614610853576040517f08c379a000000000000000000000000000000000000000000000000000000000815260040161084a90613507565b60405180910390fd5b61085b6114bf565b565b606081518351146108a3576040517f08c379a000000000000000000000000000000000000000000000000000000000815260040161089a9061368c565b60405180910390fd5b6000835167ffffffffffffffff8111156108c0576108bf6129d5565b5b6040519080825280602002602001820160405280156108ee5781602001602082028036833780820191505090505b50905060005b845181101561096b5761093b858281518110610913576109126136ac565b5b602002602001015185838151811061092e5761092d6136ac565b5b60200260200101516103e1565b82828151811061094e5761094d6136ac565b5b602002602001018181525050806109649061370a565b90506108f4565b508091505092915050565b60008061098283610c1a565b119050919050565b6000600360149054906101000a900460ff16905090565b6109a9610f6b565b73ffffffffffffffffffffffffffffffffffffffff168373ffffffffffffffffffffffffffffffffffffffff1614806109ef57506109ee836109e9610f6b565b610c37565b5b610a2e576040517f08c379a0000000000000000000000000000000000000000000000000000000008152600401610a25906137c5565b60405180910390fd5b610a39838383611561565b505050565b610a46610f6b565b73ffffffffffffffffffffffffffffffffffffffff16610a64610bda565b73ffffffffffffffffffffffffffffffffffffffff1614610aba576040517f08c379a0000000000000000000000000000000000000000000000000000000008152600401610ab190613507565b60405180910390fd5b610ac46000611812565b565b610ace610f6b565b73ffffffffffffffffffffffffffffffffffffffff16610aec610bda565b73ffffffffffffffffffffffffffffffffffffffff1614610b42576040517f08c379a0000000000000000000000000000000000000000000000000000000008152600401610b3990613507565b60405180910390fd5b610b4e848484846118d8565b50505050565b610b5c610f6b565b73ffffffffffffffffffffffffffffffffffffffff16610b7a610bda565b73ffffffffffffffffffffffffffffffffffffffff1614610bd0576040517f08c379a0000000000000000000000000000000000000000000000000000000008152600401610bc790613507565b60405180910390fd5b610bd8611a6e565b565b6000600360009054906101000a900473ffffffffffffffffffffffffffffffffffffffff16905090565b610c16610c0f610f6b565b8383611b11565b5050565b600060046000838152602001908152602001600020549050919050565b6000600160008473ffffffffffffffffffffffffffffffffffffffff1673ffffffffffffffffffffffffffffffffffffffff16815260200190815260200160002060008373ffffffffffffffffffffffffffffffffffffffff1673ffffffffffffffffffffffffffffffffffffffff16815260200190815260200160002060009054906101000a900460ff16905092915050565b610cd3610f6b565b73ffffffffffffffffffffffffffffffffffffffff168573ffffffffffffffffffffffffffffffffffffffff161480610d195750610d1885610d13610f6b565b610c37565b5b610d58576040517f08c379a0000000000000000000000000000000000000000000000000000000008152600401610d4f906137c5565b60405180910390fd5b610d658585858585611c7e565b5050505050565b610d74610f6b565b73ffffffffffffffffffffffffffffffffffffffff16610d92610bda565b73ffffffffffffffffffffffffffffffffffffffff1614610de8576040517f08c379a0000000000000000000000000000000000000000000000000000000008152600401610ddf90613507565b60405180910390fd5b600073ffffffffffffffffffffffffffffffffffffffff168173ffffffffffffffffffffffffffffffffffffffff161415610e58576040517f08c379a0000000000000000000000000000000000000000000000000000000008152600401610e4f90613857565b60405180910390fd5b610e6181611812565b50565b610e6c610f6b565b73ffffffffffffffffffffffffffffffffffffffff168373ffffffffffffffffffffffffffffffffffffffff161480610eb25750610eb183610eac610f6b565b610c37565b5b610ef1576040517f08c379a0000000000000000000000000000000000000000000000000000000008152600401610ee8906137c5565b60405180910390fd5b610efc838383611f00565b505050565b60007f01ffc9a7000000000000000000000000000000000000000000000000000000007bffffffffffffffffffffffffffffffffffffffffffffffffffffffff1916827bffffffffffffffffffffffffffffffffffffffffffffffffffffffff1916149050919050565b600033905090565b8060029080519060200190610f8992919061274a565b5050565b600073ffffffffffffffffffffffffffffffffffffffff168473ffffffffffffffffffffffffffffffffffffffff161415610ffd576040517f08c379a0000000000000000000000000000000000000000000000000000000008152600401610ff4906138e9565b60405180910390fd5b8151835114611041576040517f08c379a00000000000000000000000000000000000000000000000000000000081526004016110389061397b565b60405180910390fd5b600061104b610f6b565b905061105c8160008787878761211d565b60005b84518110156111155783818151811061107b5761107a6136ac565b5b6020026020010151600080878481518110611099576110986136ac565b5b6020026020010151815260200190815260200160002060008873ffffffffffffffffffffffffffffffffffffffff1673ffffffffffffffffffffffffffffffffffffffff16815260200190815260200160002060008282546110fb919061399b565b92505081905550808061110d9061370a565b91505061105f565b508473ffffffffffffffffffffffffffffffffffffffff16600073ffffffffffffffffffffffffffffffffffffffff168273ffffffffffffffffffffffffffffffffffffffff167f4a39dc06d4c0dbc64b70af90fd698a233a518aa5d07e595d983b8c0526c8f7fb878760405161118d9291906139f1565b60405180910390a46111a48160008787878761217b565b5050505050565b81518351146111ef576040517f08c379a00000000000000000000000000000000000000000000000000000000081526004016111e69061397b565b60405180910390fd5b600073ffffffffffffffffffffffffffffffffffffffff168473ffffffffffffffffffffffffffffffffffffffff16141561125f576040517f08c379a000000000000000000000000000000000000000000000000000000000815260040161125690613a9a565b60405180910390fd5b6000611269610f6b565b905061127981878787878761211d565b60005b845181101561142a57600085828151811061129a576112996136ac565b5b6020026020010151905060008583815181106112b9576112b86136ac565b5b60200260200101519050600080600084815260200190815260200160002060008b73ffffffffffffffffffffffffffffffffffffffff1673ffffffffffffffffffffffffffffffffffffffff1681526020019081526020016000205490508181101561135a576040517f08c379a000000000000000000000000000000000000000000000000000000000815260040161135190613b2c565b60405180910390fd5b81810360008085815260200190815260200160002060008c73ffffffffffffffffffffffffffffffffffffffff1673ffffffffffffffffffffffffffffffffffffffff168152602001908152602001600020819055508160008085815260200190815260200160002060008b73ffffffffffffffffffffffffffffffffffffffff1673ffffffffffffffffffffffffffffffffffffffff168152602001908152602001600020600082825461140f919061399b565b92505081905550505050806114239061370a565b905061127c565b508473ffffffffffffffffffffffffffffffffffffffff168673ffffffffffffffffffffffffffffffffffffffff168273ffffffffffffffffffffffffffffffffffffffff167f4a39dc06d4c0dbc64b70af90fd698a233a518aa5d07e595d983b8c0526c8f7fb87876040516114a19291906139f1565b60405180910390a46114b781878787878761217b565b505050505050565b6114c761098a565b611506576040517f08c379a00000000000000000000000000000000000000000000000000000000081526004016114fd90613b98565b60405180910390fd5b6000600360146101000a81548160ff0219169083151502179055507f5db9ee0a495bf2e6ff9c91a7834c1ba4fdd244a5e8aa4e537bd38aeae4b073aa61154a610f6b565b604051611557919061324b565b60405180910390a1565b600073ffffffffffffffffffffffffffffffffffffffff168373ffffffffffffffffffffffffffffffffffffffff1614156115d1576040517f08c379a00000000000000000000000000000000000000000000000000000000081526004016115c890613c2a565b60405180910390fd5b8051825114611615576040517f08c379a000000000000000000000000000000000000000000000000000000000815260040161160c9061397b565b60405180910390fd5b600061161f610f6b565b905061163f8185600086866040518060200160405280600081525061211d565b60005b835181101561178c5760008482815181106116605761165f6136ac565b5b60200260200101519050600084838151811061167f5761167e6136ac565b5b60200260200101519050600080600084815260200190815260200160002060008973ffffffffffffffffffffffffffffffffffffffff1673ffffffffffffffffffffffffffffffffffffffff16815260200190815260200160002054905081811015611720576040517f08c379a000000000000000000000000000000000000000000000000000000000815260040161171790613cbc565b60405180910390fd5b81810360008085815260200190815260200160002060008a73ffffffffffffffffffffffffffffffffffffffff1673ffffffffffffffffffffffffffffffffffffffff1681526020019081526020016000208190555050505080806117849061370a565b915050611642565b50600073ffffffffffffffffffffffffffffffffffffffff168473ffffffffffffffffffffffffffffffffffffffff168273ffffffffffffffffffffffffffffffffffffffff167f4a39dc06d4c0dbc64b70af90fd698a233a518aa5d07e595d983b8c0526c8f7fb86866040516118049291906139f1565b60405180910390a450505050565b6000600360009054906101000a900473ffffffffffffffffffffffffffffffffffffffff16905081600360006101000a81548173ffffffffffffffffffffffffffffffffffffffff021916908373ffffffffffffffffffffffffffffffffffffffff1602179055508173ffffffffffffffffffffffffffffffffffffffff168173ffffffffffffffffffffffffffffffffffffffff167f8be0079c531659141344cd1fd0a4f28419497f9722a3daafe3b4186f6b6457e060405160405180910390a35050565b600073ffffffffffffffffffffffffffffffffffffffff168473ffffffffffffffffffffffffffffffffffffffff161415611948576040517f08c379a000000000000000000000000000000000000000000000000000000000815260040161193f906138e9565b60405180910390fd5b6000611952610f6b565b90506119738160008761196488612353565b61196d88612353565b8761211d565b8260008086815260200190815260200160002060008773ffffffffffffffffffffffffffffffffffffffff1673ffffffffffffffffffffffffffffffffffffffff16815260200190815260200160002060008282546119d2919061399b565b925050819055508473ffffffffffffffffffffffffffffffffffffffff16600073ffffffffffffffffffffffffffffffffffffffff168273ffffffffffffffffffffffffffffffffffffffff167fc3d58168c5ae7397731d063d5bbf3d657854427343f4c083240f7aacaa2d0f628787604051611a50929190613cdc565b60405180910390a4611a67816000878787876123cd565b5050505050565b611a7661098a565b15611ab6576040517f08c379a0000000000000000000000000000000000000000000000000000000008152600401611aad90613d51565b60405180910390fd5b6001600360146101000a81548160ff0219169083151502179055507f62e78cea01bee320cd4e420270b5ea74000d11b0c9f74754ebdbfc544b05a258611afa610f6b565b604051611b07919061324b565b60405180910390a1565b8173ffffffffffffffffffffffffffffffffffffffff168373ffffffffffffffffffffffffffffffffffffffff161415611b80576040517f08c379a0000000000000000000000000000000000000000000000000000000008152600401611b7790613de3565b60405180910390fd5b80600160008573ffffffffffffffffffffffffffffffffffffffff1673ffffffffffffffffffffffffffffffffffffffff16815260200190815260200160002060008473ffffffffffffffffffffffffffffffffffffffff1673ffffffffffffffffffffffffffffffffffffffff16815260200190815260200160002060006101000a81548160ff0219169083151502179055508173ffffffffffffffffffffffffffffffffffffffff168373ffffffffffffffffffffffffffffffffffffffff167f17307eab39ab6107e8899845ad3d59bd9653f200f220920489ca2b5937696c3183604051611c71919061299f565b60405180910390a3505050565b600073ffffffffffffffffffffffffffffffffffffffff168473ffffffffffffffffffffffffffffffffffffffff161415611cee576040517f08c379a0000000000000000000000000000000000000000000000000000000008152600401611ce590613a9a565b60405180910390fd5b6000611cf8610f6b565b9050611d18818787611d0988612353565b611d1288612353565b8761211d565b600080600086815260200190815260200160002060008873ffffffffffffffffffffffffffffffffffffffff1673ffffffffffffffffffffffffffffffffffffffff16815260200190815260200160002054905083811015611daf576040517f08c379a0000000000000000000000000000000000000000000000000000000008152600401611da690613b2c565b60405180910390fd5b83810360008087815260200190815260200160002060008973ffffffffffffffffffffffffffffffffffffffff1673ffffffffffffffffffffffffffffffffffffffff168152602001908152602001600020819055508360008087815260200190815260200160002060008873ffffffffffffffffffffffffffffffffffffffff1673ffffffffffffffffffffffffffffffffffffffff1681526020019081526020016000206000828254611e64919061399b565b925050819055508573ffffffffffffffffffffffffffffffffffffffff168773ffffffffffffffffffffffffffffffffffffffff168373ffffffffffffffffffffffffffffffffffffffff167fc3d58168c5ae7397731d063d5bbf3d657854427343f4c083240f7aacaa2d0f628888604051611ee1929190613cdc565b60405180910390a4611ef78288888888886123cd565b50505050505050565b600073ffffffffffffffffffffffffffffffffffffffff168373ffffffffffffffffffffffffffffffffffffffff161415611f70576040517f08c379a0000000000000000000000000000000000000000000000000000000008152600401611f6790613c2a565b60405180910390fd5b6000611f7a610f6b565b9050611faa81856000611f8c87612353565b611f9587612353565b6040518060200160405280600081525061211d565b600080600085815260200190815260200160002060008673ffffffffffffffffffffffffffffffffffffffff1673ffffffffffffffffffffffffffffffffffffffff16815260200190815260200160002054905082811015612041576040517f08c379a000000000000000000000000000000000000000000000000000000000815260040161203890613cbc565b60405180910390fd5b82810360008086815260200190815260200160002060008773ffffffffffffffffffffffffffffffffffffffff1673ffffffffffffffffffffffffffffffffffffffff16815260200190815260200160002081905550600073ffffffffffffffffffffffffffffffffffffffff168573ffffffffffffffffffffffffffffffffffffffff168373ffffffffffffffffffffffffffffffffffffffff167fc3d58168c5ae7397731d063d5bbf3d657854427343f4c083240f7aacaa2d0f62878760405161210e929190613cdc565b60405180910390a45050505050565b61212561098a565b15612165576040517f08c379a000000000000000000000000000000000000000000000000000000000815260040161215c90613d51565b60405180910390fd5b6121738686868686866125a5565b505050505050565b61219a8473ffffffffffffffffffffffffffffffffffffffff1661271f565b1561234b578373ffffffffffffffffffffffffffffffffffffffff1663bc197c8187878686866040518663ffffffff1660e01b81526004016121e0959493929190613e58565b6020604051808303816000875af192505050801561221c57506040513d601f19601f820116820180604052508101906122199190613ed5565b60015b6122c257612228613f0f565b806308c379a01415612285575061223d613f31565b806122485750612287565b806040517f08c379a000000000000000000000000000000000000000000000000000000000815260040161227c9190612bfe565b60405180910390fd5b505b6040517f08c379a00000000000000000000000000000000000000000000000000000000081526004016122b990614039565b60405180910390fd5b63bc197c8160e01b7bffffffffffffffffffffffffffffffffffffffffffffffffffffffff1916817bffffffffffffffffffffffffffffffffffffffffffffffffffffffff191614612349576040517f08c379a0000000000000000000000000000000000000000000000000000000008152600401612340906140cb565b60405180910390fd5b505b505050505050565b60606000600167ffffffffffffffff811115612372576123716129d5565b5b6040519080825280602002602001820160405280156123a05781602001602082028036833780820191505090505b50905082816000815181106123b8576123b76136ac565b5b60200260200101818152505080915050919050565b6123ec8473ffffffffffffffffffffffffffffffffffffffff1661271f565b1561259d578373ffffffffffffffffffffffffffffffffffffffff1663f23a6e6187878686866040518663ffffffff1660e01b81526004016124329594939291906140eb565b6020604051808303816000875af192505050801561246e57506040513d601f19601f8201168201806040525081019061246b9190613ed5565b60015b6125145761247a613f0f565b806308c379a014156124d7575061248f613f31565b8061249a57506124d9565b806040517f08c379a00000000000000000000000000000000000000000000000000000000081526004016124ce9190612bfe565b60405180910390fd5b505b6040517f08c379a000000000000000000000000000000000000000000000000000000000815260040161250b90614039565b60405180910390fd5b63f23a6e6160e01b7bffffffffffffffffffffffffffffffffffffffffffffffffffffffff1916817bffffffffffffffffffffffffffffffffffffffffffffffffffffffff19161461259b576040517f08c379a0000000000000000000000000000000000000000000000000000000008152600401612592906140cb565b60405180910390fd5b505b505050505050565b6125b3868686868686612742565b600073ffffffffffffffffffffffffffffffffffffffff168573ffffffffffffffffffffffffffffffffffffffff1614156126655760005b835181101561266357828181518110612607576126066136ac565b5b602002602001015160046000868481518110612626576126256136ac565b5b60200260200101518152602001908152602001600020600082825461264b919061399b565b925050819055508061265c9061370a565b90506125eb565b505b600073ffffffffffffffffffffffffffffffffffffffff168473ffffffffffffffffffffffffffffffffffffffff1614156127175760005b8351811015612715578281815181106126b9576126b86136ac565b5b6020026020010151600460008684815181106126d8576126d76136ac565b5b6020026020010151815260200190815260200160002060008282546126fd9190614145565b925050819055508061270e9061370a565b905061269d565b505b505050505050565b6000808273ffffffffffffffffffffffffffffffffffffffff163b119050919050565b505050505050565b82805461275690613556565b90600052602060002090601f01602090048101928261277857600085556127bf565b82601f1061279157805160ff19168380011785556127bf565b828001600101855582156127bf579182015b828111156127be5782518255916020019190600101906127a3565b5b5090506127cc91906127d0565b5090565b5b808211156127e95760008160009055506001016127d1565b5090565b6000604051905090565b600080fd5b600080fd5b600073ffffffffffffffffffffffffffffffffffffffff82169050919050565b600061282c82612801565b9050919050565b61283c81612821565b811461284757600080fd5b50565b60008135905061285981612833565b92915050565b6000819050919050565b6128728161285f565b811461287d57600080fd5b50565b60008135905061288f81612869565b92915050565b600080604083850312156128ac576128ab6127f7565b5b60006128ba8582860161284a565b92505060206128cb85828601612880565b9150509250929050565b6128de8161285f565b82525050565b60006020820190506128f960008301846128d5565b92915050565b60007fffffffff0000000000000000000000000000000000000000000000000000000082169050919050565b612934816128ff565b811461293f57600080fd5b50565b6000813590506129518161292b565b92915050565b60006020828403121561296d5761296c6127f7565b5b600061297b84828501612942565b91505092915050565b60008115159050919050565b61299981612984565b82525050565b60006020820190506129b46000830184612990565b92915050565b600080fd5b600080fd5b6000601f19601f8301169050919050565b7f4e487b7100000000000000000000000000000000000000000000000000000000600052604160045260246000fd5b612a0d826129c4565b810181811067ffffffffffffffff82111715612a2c57612a2b6129d5565b5b80604052505050565b6000612a3f6127ed565b9050612a4b8282612a04565b919050565b600067ffffffffffffffff821115612a6b57612a6a6129d5565b5b612a74826129c4565b9050602081019050919050565b82818337600083830152505050565b6000612aa3612a9e84612a50565b612a35565b905082815260208101848484011115612abf57612abe6129bf565b5b612aca848285612a81565b509392505050565b600082601f830112612ae757612ae66129ba565b5b8135612af7848260208601612a90565b91505092915050565b600060208284031215612b1657612b156127f7565b5b600082013567ffffffffffffffff811115612b3457612b336127fc565b5b612b4084828501612ad2565b91505092915050565b600060208284031215612b5f57612b5e6127f7565b5b6000612b6d84828501612880565b91505092915050565b600081519050919050565b600082825260208201905092915050565b60005b83811015612bb0578082015181840152602081019050612b95565b83811115612bbf576000848401525b50505050565b6000612bd082612b76565b612bda8185612b81565b9350612bea818560208601612b92565b612bf3816129c4565b840191505092915050565b60006020820190508181036000830152612c188184612bc5565b905092915050565b600067ffffffffffffffff821115612c3b57612c3a6129d5565b5b602082029050602081019050919050565b600080fd5b6000612c64612c5f84612c20565b612a35565b90508083825260208201905060208402830185811115612c8757612c86612c4c565b5b835b81811015612cb05780612c9c8882612880565b845260208401935050602081019050612c89565b5050509392505050565b600082601f830112612ccf57612cce6129ba565b5b8135612cdf848260208601612c51565b91505092915050565b600067ffffffffffffffff821115612d0357612d026129d5565b5b612d0c826129c4565b9050602081019050919050565b6000612d2c612d2784612ce8565b612a35565b905082815260208101848484011115612d4857612d476129bf565b5b612d53848285612a81565b509392505050565b600082601f830112612d7057612d6f6129ba565b5b8135612d80848260208601612d19565b91505092915050565b60008060008060808587031215612da357612da26127f7565b5b6000612db18782880161284a565b945050602085013567ffffffffffffffff811115612dd257612dd16127fc565b5b612dde87828801612cba565b935050604085013567ffffffffffffffff811115612dff57612dfe6127fc565b5b612e0b87828801612cba565b925050606085013567ffffffffffffffff811115612e2c57612e2b6127fc565b5b612e3887828801612d5b565b91505092959194509250565b600080600080600060a08688031215612e6057612e5f6127f7565b5b6000612e6e8882890161284a565b9550506020612e7f8882890161284a565b945050604086013567ffffffffffffffff811115612ea057612e9f6127fc565b5b612eac88828901612cba565b935050606086013567ffffffffffffffff811115612ecd57612ecc6127fc565b5b612ed988828901612cba565b925050608086013567ffffffffffffffff811115612efa57612ef96127fc565b5b612f0688828901612d5b565b9150509295509295909350565b600067ffffffffffffffff821115612f2e57612f2d6129d5565b5b602082029050602081019050919050565b6000612f52612f4d84612f13565b612a35565b90508083825260208201905060208402830185811115612f7557612f74612c4c565b5b835b81811015612f9e5780612f8a888261284a565b845260208401935050602081019050612f77565b5050509392505050565b600082601f830112612fbd57612fbc6129ba565b5b8135612fcd848260208601612f3f565b91505092915050565b60008060408385031215612fed57612fec6127f7565b5b600083013567ffffffffffffffff81111561300b5761300a6127fc565b5b61301785828601612fa8565b925050602083013567ffffffffffffffff811115613038576130376127fc565b5b61304485828601612cba565b9150509250929050565b600081519050919050565b600082825260208201905092915050565b6000819050602082019050919050565b6130838161285f565b82525050565b6000613095838361307a565b60208301905092915050565b6000602082019050919050565b60006130b98261304e565b6130c38185613059565b93506130ce8361306a565b8060005b838110156130ff5781516130e68882613089565b97506130f1836130a1565b9250506001810190506130d2565b5085935050505092915050565b6000602082019050818103600083015261312681846130ae565b905092915050565b600080600060608486031215613147576131466127f7565b5b60006131558682870161284a565b935050602084013567ffffffffffffffff811115613176576131756127fc565b5b61318286828701612cba565b925050604084013567ffffffffffffffff8111156131a3576131a26127fc565b5b6131af86828701612cba565b9150509250925092565b600080600080608085870312156131d3576131d26127f7565b5b60006131e18782880161284a565b94505060206131f287828801612880565b935050604061320387828801612880565b925050606085013567ffffffffffffffff811115613224576132236127fc565b5b61323087828801612d5b565b91505092959194509250565b61324581612821565b82525050565b6000602082019050613260600083018461323c565b92915050565b61326f81612984565b811461327a57600080fd5b50565b60008135905061328c81613266565b92915050565b600080604083850312156132a9576132a86127f7565b5b60006132b78582860161284a565b92505060206132c88582860161327d565b9150509250929050565b600080604083850312156132e9576132e86127f7565b5b60006132f78582860161284a565b92505060206133088582860161284a565b9150509250929050565b600080600080600060a0868803121561332e5761332d6127f7565b5b600061333c8882890161284a565b955050602061334d8882890161284a565b945050604061335e88828901612880565b935050606061336f88828901612880565b925050608086013567ffffffffffffffff8111156133905761338f6127fc565b5b61339c88828901612d5b565b9150509295509295909350565b6000602082840312156133bf576133be6127f7565b5b60006133cd8482850161284a565b91505092915050565b6000806000606084860312156133ef576133ee6127f7565b5b60006133fd8682870161284a565b935050602061340e86828701612880565b925050604061341f86828701612880565b9150509250925092565b7f455243313135353a2062616c616e636520717565727920666f7220746865207a60008201527f65726f2061646472657373000000000000000000000000000000000000000000602082015250565b6000613485602b83612b81565b915061349082613429565b604082019050919050565b600060208201905081810360008301526134b481613478565b9050919050565b7f4f776e61626c653a2063616c6c6572206973206e6f7420746865206f776e6572600082015250565b60006134f1602083612b81565b91506134fc826134bb565b602082019050919050565b60006020820190508181036000830152613520816134e4565b9050919050565b7f4e487b7100000000000000000000000000000000000000000000000000000000600052602260045260246000fd5b6000600282049050600182168061356e57607f821691505b6020821081141561358257613581613527565b5b50919050565b7f455243313135353a207472616e736665722063616c6c6572206973206e6f742060008201527f6f776e6572206e6f7220617070726f7665640000000000000000000000000000602082015250565b60006135e4603283612b81565b91506135ef82613588565b604082019050919050565b60006020820190508181036000830152613613816135d7565b9050919050565b7f455243313135353a206163636f756e747320616e6420696473206c656e67746860008201527f206d69736d617463680000000000000000000000000000000000000000000000602082015250565b6000613676602983612b81565b91506136818261361a565b604082019050919050565b600060208201905081810360008301526136a581613669565b9050919050565b7f4e487b7100000000000000000000000000000000000000000000000000000000600052603260045260246000fd5b7f4e487b7100000000000000000000000000000000000000000000000000000000600052601160045260246000fd5b60006137158261285f565b91507fffffffffffffffffffffffffffffffffffffffffffffffffffffffffffffffff821415613748576137476136db565b5b600182019050919050565b7f455243313135353a2063616c6c6572206973206e6f74206f776e6572206e6f7260008201527f20617070726f7665640000000000000000000000000000000000000000000000602082015250565b60006137af602983612b81565b91506137ba82613753565b604082019050919050565b600060208201905081810360008301526137de816137a2565b9050919050565b7f4f776e61626c653a206e6577206f776e657220697320746865207a65726f206160008201527f6464726573730000000000000000000000000000000000000000000000000000602082015250565b6000613841602683612b81565b915061384c826137e5565b604082019050919050565b6000602082019050818103600083015261387081613834565b9050919050565b7f455243313135353a206d696e7420746f20746865207a65726f2061646472657360008201527f7300000000000000000000000000000000000000000000000000000000000000602082015250565b60006138d3602183612b81565b91506138de82613877565b604082019050919050565b60006020820190508181036000830152613902816138c6565b9050919050565b7f455243313135353a2069647320616e6420616d6f756e7473206c656e6774682060008201527f6d69736d61746368000000000000000000000000000000000000000000000000602082015250565b6000613965602883612b81565b915061397082613909565b604082019050919050565b6000602082019050818103600083015261399481613958565b9050919050565b60006139a68261285f565b91506139b18361285f565b9250827fffffffffffffffffffffffffffffffffffffffffffffffffffffffffffffffff038211156139e6576139e56136db565b5b828201905092915050565b60006040820190508181036000830152613a0b81856130ae565b90508181036020830152613a1f81846130ae565b90509392505050565b7f455243313135353a207472616e7366657220746f20746865207a65726f20616460008201527f6472657373000000000000000000000000000000000000000000000000000000602082015250565b6000613a84602583612b81565b9150613a8f82613a28565b604082019050919050565b60006020820190508181036000830152613ab381613a77565b9050919050565b7f455243313135353a20696e73756666696369656e742062616c616e636520666f60008201527f72207472616e7366657200000000000000000000000000000000000000000000602082015250565b6000613b16602a83612b81565b9150613b2182613aba565b604082019050919050565b60006020820190508181036000830152613b4581613b09565b9050919050565b7f5061757361626c653a206e6f7420706175736564000000000000000000000000600082015250565b6000613b82601483612b81565b9150613b8d82613b4c565b602082019050919050565b60006020820190508181036000830152613bb181613b75565b9050919050565b7f455243313135353a206275726e2066726f6d20746865207a65726f206164647260008201527f6573730000000000000000000000000000000000000000000000000000000000602082015250565b6000613c14602383612b81565b9150613c1f82613bb8565b604082019050919050565b60006020820190508181036000830152613c4381613c07565b9050919050565b7f455243313135353a206275726e20616d6f756e7420657863656564732062616c60008201527f616e636500000000000000000000000000000000000000000000000000000000602082015250565b6000613ca6602483612b81565b9150613cb182613c4a565b604082019050919050565b60006020820190508181036000830152613cd581613c99565b9050919050565b6000604082019050613cf160008301856128d5565b613cfe60208301846128d5565b9392505050565b7f5061757361626c653a2070617573656400000000000000000000000000000000600082015250565b6000613d3b601083612b81565b9150613d4682613d05565b602082019050919050565b60006020820190508181036000830152613d6a81613d2e565b9050919050565b7f455243313135353a2073657474696e6720617070726f76616c2073746174757360008201527f20666f722073656c660000000000000000000000000000000000000000000000602082015250565b6000613dcd602983612b81565b9150613dd882613d71565b604082019050919050565b60006020820190508181036000830152613dfc81613dc0565b9050919050565b600081519050919050565b600082825260208201905092915050565b6000613e2a82613e03565b613e348185613e0e565b9350613e44818560208601612b92565b613e4d816129c4565b840191505092915050565b600060a082019050613e6d600083018861323c565b613e7a602083018761323c565b8181036040830152613e8c81866130ae565b90508181036060830152613ea081856130ae565b90508181036080830152613eb48184613e1f565b90509695505050505050565b600081519050613ecf8161292b565b92915050565b600060208284031215613eeb57613eea6127f7565b5b6000613ef984828501613ec0565b91505092915050565b60008160e01c9050919050565b600060033d1115613f2e5760046000803e613f2b600051613f02565b90505b90565b600060443d1015613f4157613fc4565b613f496127ed565b60043d036004823e80513d602482011167ffffffffffffffff82111715613f71575050613fc4565b808201805167ffffffffffffffff811115613f8f5750505050613fc4565b80602083010160043d038501811115613fac575050505050613fc4565b613fbb82602001850186612a04565b82955050505050505b90565b7f455243313135353a207472616e7366657220746f206e6f6e204552433131353560008201527f526563656976657220696d706c656d656e746572000000000000000000000000602082015250565b6000614023603483612b81565b915061402e82613fc7565b604082019050919050565b6000602082019050818103600083015261405281614016565b9050919050565b7f455243313135353a204552433131353552656365697665722072656a6563746560008201527f6420746f6b656e73000000000000000000000000000000000000000000000000602082015250565b60006140b5602883612b81565b91506140c082614059565b604082019050919050565b600060208201905081810360008301526140e4816140a8565b9050919050565b600060a082019050614100600083018861323c565b61410d602083018761323c565b61411a60408301866128d5565b61412760608301856128d5565b81810360808301526141398184613e1f565b90509695505050505050565b60006141508261285f565b915061415b8361285f565b92508282101561416e5761416d6136db565b5b82820390509291505056fea2646970667358221220dd761834d578837892befa9d48e03bd618e5adabae4432df03238273731c59e064736f6c634300080b0033",
  "immutableReferences": {},
  "source": "// SPDX-License-Identifier: MIT\npragma solidity ^0.8.4;\n\nimport \"@openzeppelin/contracts/token/ERC1155/ERC1155.sol\";\nimport \"@openzeppelin/contracts/access/Ownable.sol\";\nimport \"@openzeppelin/contracts/security/Pausable.sol\";\nimport \"@openzeppelin/contracts/token/ERC1155/extensions/ERC1155Burnable.sol\";\nimport \"@openzeppelin/contracts/token/ERC1155/extensions/ERC1155Supply.sol\";\n\ncontract MyToken is ERC1155, Ownable, Pausable, ERC1155Burnable, ERC1155Supply {\n    constructor() ERC1155(\"\") {}\n\n    function setURI(string memory newuri) public onlyOwner {\n        _setURI(newuri);\n    }\n\n    function pause() public onlyOwner {\n        _pause();\n    }\n\n    function unpause() public onlyOwner {\n        _unpause();\n    }\n\n    function mint(address account, uint256 id, uint256 amount, bytes memory data)\n        public\n        onlyOwner\n    {\n        _mint(account, id, amount, data);\n    }\n\n    function mintBatch(address to, uint256[] memory ids, uint256[] memory amounts, bytes memory data)\n        public\n        onlyOwner\n    {\n        _mintBatch(to, ids, amounts, data);\n    }\n\n    function _beforeTokenTransfer(address operator, address from, address to, uint256[] memory ids, uint256[] memory amounts, bytes memory data)\n        internal\n        whenNotPaused\n        override(ERC1155, ERC1155Supply)\n    {\n        super._beforeTokenTransfer(operator, from, to, ids, amounts, data);\n    }\n}",
  "sourcePath": "/home/falcon46/Documents/projects/learn react SC integration/NftGallery/Smartcontracterc1155/contracts/playGround.sol",
  "compiler": {
    "name": "solc",
    "version": "0.8.11+commit.d7f03943.Emscripten.clang"
  },
  "schemaVersion": "3.4.4",
  "updatedAt": "2022-02-25T14:33:00.977Z",
  "devdoc": {
    "kind": "dev",
    "methods": {
      "balanceOf(address,uint256)": {
        "details": "See {IERC1155-balanceOf}. Requirements: - `account` cannot be the zero address."
      },
      "balanceOfBatch(address[],uint256[])": {
        "details": "See {IERC1155-balanceOfBatch}. Requirements: - `accounts` and `ids` must have the same length."
      },
      "exists(uint256)": {
        "details": "Indicates whether any token exist with a given id, or not."
      },
      "isApprovedForAll(address,address)": {
        "details": "See {IERC1155-isApprovedForAll}."
      },
      "owner()": {
        "details": "Returns the address of the current owner."
      },
      "paused()": {
        "details": "Returns true if the contract is paused, and false otherwise."
      },
      "renounceOwnership()": {
        "details": "Leaves the contract without owner. It will not be possible to call `onlyOwner` functions anymore. Can only be called by the current owner. NOTE: Renouncing ownership will leave the contract without an owner, thereby removing any functionality that is only available to the owner."
      },
      "safeBatchTransferFrom(address,address,uint256[],uint256[],bytes)": {
        "details": "See {IERC1155-safeBatchTransferFrom}."
      },
      "safeTransferFrom(address,address,uint256,uint256,bytes)": {
        "details": "See {IERC1155-safeTransferFrom}."
      },
      "setApprovalForAll(address,bool)": {
        "details": "See {IERC1155-setApprovalForAll}."
      },
      "supportsInterface(bytes4)": {
        "details": "See {IERC165-supportsInterface}."
      },
      "totalSupply(uint256)": {
        "details": "Total amount of tokens in with a given id."
      },
      "transferOwnership(address)": {
        "details": "Transfers ownership of the contract to a new account (`newOwner`). Can only be called by the current owner."
      },
      "uri(uint256)": {
        "details": "See {IERC1155MetadataURI-uri}. This implementation returns the same URI for *all* token types. It relies on the token type ID substitution mechanism https://eips.ethereum.org/EIPS/eip-1155#metadata[defined in the EIP]. Clients calling this function must replace the `\\{id\\}` substring with the actual token type ID."
      }
    },
    "version": 1
  },
  "userdoc": {
    "kind": "user",
    "methods": {},
    "version": 1
  }
}