{
  "contractName": "playGround",
  "abi": [
    {
      "inputs": [
        {
          "internalType": "string",
          "name": "_name",
          "type": "string"
        },
        {
          "internalType": "string",
          "name": "_symbol",
          "type": "string"
        }
      ],
      "stateMutability": "nonpayable",
      "type": "constructor"
    },
    {
      "anonymous": false,
      "inputs": [
        {
          "indexed": true,
          "internalType": "address",
          "name": "account",
          "type": "address"
        },
        {
          "indexed": true,
          "internalType": "address",
          "name": "operator",
          "type": "address"
        },
        {
          "indexed": false,
          "internalType": "bool",
          "name": "approved",
          "type": "bool"
        }
      ],
      "name": "ApprovalForAll",
      "type": "event"
    },
    {
      "anonymous": false,
      "inputs": [
        {
          "indexed": true,
          "internalType": "address",
          "name": "previousOwner",
          "type": "address"
        },
        {
          "indexed": true,
          "internalType": "address",
          "name": "newOwner",
          "type": "address"
        }
      ],
      "name": "OwnershipTransferred",
      "type": "event"
    },
    {
      "anonymous": false,
      "inputs": [
        {
          "indexed": false,
          "internalType": "address",
          "name": "account",
          "type": "address"
        }
      ],
      "name": "Paused",
      "type": "event"
    },
    {
      "anonymous": false,
      "inputs": [
        {
          "indexed": true,
          "internalType": "address",
          "name": "operator",
          "type": "address"
        },
        {
          "indexed": true,
          "internalType": "address",
          "name": "from",
          "type": "address"
        },
        {
          "indexed": true,
          "internalType": "address",
          "name": "to",
          "type": "address"
        },
        {
          "indexed": false,
          "internalType": "uint256[]",
          "name": "ids",
          "type": "uint256[]"
        },
        {
          "indexed": false,
          "internalType": "uint256[]",
          "name": "values",
          "type": "uint256[]"
        }
      ],
      "name": "TransferBatch",
      "type": "event"
    },
    {
      "anonymous": false,
      "inputs": [
        {
          "indexed": true,
          "internalType": "address",
          "name": "operator",
          "type": "address"
        },
        {
          "indexed": true,
          "internalType": "address",
          "name": "from",
          "type": "address"
        },
        {
          "indexed": true,
          "internalType": "address",
          "name": "to",
          "type": "address"
        },
        {
          "indexed": false,
          "internalType": "uint256",
          "name": "id",
          "type": "uint256"
        },
        {
          "indexed": false,
          "internalType": "uint256",
          "name": "value",
          "type": "uint256"
        }
      ],
      "name": "TransferSingle",
      "type": "event"
    },
    {
      "anonymous": false,
      "inputs": [
        {
          "indexed": false,
          "internalType": "string",
          "name": "value",
          "type": "string"
        },
        {
          "indexed": true,
          "internalType": "uint256",
          "name": "id",
          "type": "uint256"
        }
      ],
      "name": "URI",
      "type": "event"
    },
    {
      "anonymous": false,
      "inputs": [
        {
          "indexed": false,
          "internalType": "address",
          "name": "account",
          "type": "address"
        }
      ],
      "name": "Unpaused",
      "type": "event"
    },
    {
      "inputs": [
        {
          "internalType": "address",
          "name": "account",
          "type": "address"
        },
        {
          "internalType": "uint256",
          "name": "id",
          "type": "uint256"
        }
      ],
      "name": "balanceOf",
      "outputs": [
        {
          "internalType": "uint256",
          "name": "",
          "type": "uint256"
        }
      ],
      "stateMutability": "view",
      "type": "function",
      "constant": true
    },
    {
      "inputs": [
        {
          "internalType": "address[]",
          "name": "accounts",
          "type": "address[]"
        },
        {
          "internalType": "uint256[]",
          "name": "ids",
          "type": "uint256[]"
        }
      ],
      "name": "balanceOfBatch",
      "outputs": [
        {
          "internalType": "uint256[]",
          "name": "",
          "type": "uint256[]"
        }
      ],
      "stateMutability": "view",
      "type": "function",
      "constant": true
    },
    {
      "inputs": [
        {
          "internalType": "address",
          "name": "account",
          "type": "address"
        },
        {
          "internalType": "uint256",
          "name": "id",
          "type": "uint256"
        },
        {
          "internalType": "uint256",
          "name": "value",
          "type": "uint256"
        }
      ],
      "name": "burn",
      "outputs": [],
      "stateMutability": "nonpayable",
      "type": "function"
    },
    {
      "inputs": [
        {
          "internalType": "address",
          "name": "account",
          "type": "address"
        },
        {
          "internalType": "uint256[]",
          "name": "ids",
          "type": "uint256[]"
        },
        {
          "internalType": "uint256[]",
          "name": "values",
          "type": "uint256[]"
        }
      ],
      "name": "burnBatch",
      "outputs": [],
      "stateMutability": "nonpayable",
      "type": "function"
    },
    {
      "inputs": [
        {
          "internalType": "uint256",
          "name": "id",
          "type": "uint256"
        }
      ],
      "name": "exists",
      "outputs": [
        {
          "internalType": "bool",
          "name": "",
          "type": "bool"
        }
      ],
      "stateMutability": "view",
      "type": "function",
      "constant": true
    },
    {
      "inputs": [
        {
          "internalType": "address",
          "name": "account",
          "type": "address"
        },
        {
          "internalType": "address",
          "name": "operator",
          "type": "address"
        }
      ],
      "name": "isApprovedForAll",
      "outputs": [
        {
          "internalType": "bool",
          "name": "",
          "type": "bool"
        }
      ],
      "stateMutability": "view",
      "type": "function",
      "constant": true
    },
    {
      "inputs": [],
      "name": "name",
      "outputs": [
        {
          "internalType": "string",
          "name": "",
          "type": "string"
        }
      ],
      "stateMutability": "view",
      "type": "function",
      "constant": true
    },
    {
      "inputs": [],
      "name": "owner",
      "outputs": [
        {
          "internalType": "address",
          "name": "",
          "type": "address"
        }
      ],
      "stateMutability": "view",
      "type": "function",
      "constant": true
    },
    {
      "inputs": [],
      "name": "paused",
      "outputs": [
        {
          "internalType": "bool",
          "name": "",
          "type": "bool"
        }
      ],
      "stateMutability": "view",
      "type": "function",
      "constant": true
    },
    {
      "inputs": [],
      "name": "renounceOwnership",
      "outputs": [],
      "stateMutability": "nonpayable",
      "type": "function"
    },
    {
      "inputs": [
        {
          "internalType": "address",
          "name": "from",
          "type": "address"
        },
        {
          "internalType": "address",
          "name": "to",
          "type": "address"
        },
        {
          "internalType": "uint256[]",
          "name": "ids",
          "type": "uint256[]"
        },
        {
          "internalType": "uint256[]",
          "name": "amounts",
          "type": "uint256[]"
        },
        {
          "internalType": "bytes",
          "name": "data",
          "type": "bytes"
        }
      ],
      "name": "safeBatchTransferFrom",
      "outputs": [],
      "stateMutability": "nonpayable",
      "type": "function"
    },
    {
      "inputs": [
        {
          "internalType": "address",
          "name": "from",
          "type": "address"
        },
        {
          "internalType": "address",
          "name": "to",
          "type": "address"
        },
        {
          "internalType": "uint256",
          "name": "id",
          "type": "uint256"
        },
        {
          "internalType": "uint256",
          "name": "amount",
          "type": "uint256"
        },
        {
          "internalType": "bytes",
          "name": "data",
          "type": "bytes"
        }
      ],
      "name": "safeTransferFrom",
      "outputs": [],
      "stateMutability": "nonpayable",
      "type": "function"
    },
    {
      "inputs": [
        {
          "internalType": "address",
          "name": "operator",
          "type": "address"
        },
        {
          "internalType": "bool",
          "name": "approved",
          "type": "bool"
        }
      ],
      "name": "setApprovalForAll",
      "outputs": [],
      "stateMutability": "nonpayable",
      "type": "function"
    },
    {
      "inputs": [
        {
          "internalType": "bytes4",
          "name": "interfaceId",
          "type": "bytes4"
        }
      ],
      "name": "supportsInterface",
      "outputs": [
        {
          "internalType": "bool",
          "name": "",
          "type": "bool"
        }
      ],
      "stateMutability": "view",
      "type": "function",
      "constant": true
    },
    {
      "inputs": [],
      "name": "symbol",
      "outputs": [
        {
          "internalType": "string",
          "name": "",
          "type": "string"
        }
      ],
      "stateMutability": "view",
      "type": "function",
      "constant": true
    },
    {
      "inputs": [
        {
          "internalType": "uint256",
          "name": "id",
          "type": "uint256"
        }
      ],
      "name": "totalSupply",
      "outputs": [
        {
          "internalType": "uint256",
          "name": "",
          "type": "uint256"
        }
      ],
      "stateMutability": "view",
      "type": "function",
      "constant": true
    },
    {
      "inputs": [
        {
          "internalType": "address",
          "name": "newOwner",
          "type": "address"
        }
      ],
      "name": "transferOwnership",
      "outputs": [],
      "stateMutability": "nonpayable",
      "type": "function"
    },
    {
      "inputs": [
        {
          "internalType": "uint256",
          "name": "",
          "type": "uint256"
        }
      ],
      "name": "uri",
      "outputs": [
        {
          "internalType": "string",
          "name": "",
          "type": "string"
        }
      ],
      "stateMutability": "view",
      "type": "function",
      "constant": true
    },
    {
      "inputs": [],
      "name": "getTokenCount",
      "outputs": [
        {
          "internalType": "uint256",
          "name": "",
          "type": "uint256"
        }
      ],
      "stateMutability": "view",
      "type": "function",
      "constant": true
    },
    {
      "inputs": [
        {
          "internalType": "string",
          "name": "newuri",
          "type": "string"
        }
      ],
      "name": "setURI",
      "outputs": [],
      "stateMutability": "nonpayable",
      "type": "function"
    },
    {
      "inputs": [],
      "name": "pause",
      "outputs": [],
      "stateMutability": "nonpayable",
      "type": "function"
    },
    {
      "inputs": [],
      "name": "unpause",
      "outputs": [],
      "stateMutability": "nonpayable",
      "type": "function"
    },
    {
      "inputs": [
        {
          "internalType": "address",
          "name": "account",
          "type": "address"
        },
        {
          "internalType": "uint256",
          "name": "id",
          "type": "uint256"
        },
        {
          "internalType": "uint256",
          "name": "amount",
          "type": "uint256"
        },
        {
          "internalType": "bytes",
          "name": "data",
          "type": "bytes"
        }
      ],
      "name": "mint",
      "outputs": [],
      "stateMutability": "nonpayable",
      "type": "function"
    },
    {
      "inputs": [
        {
          "internalType": "address",
          "name": "to",
          "type": "address"
        },
        {
          "internalType": "uint256[]",
          "name": "ids",
          "type": "uint256[]"
        },
        {
          "internalType": "uint256[]",
          "name": "amounts",
          "type": "uint256[]"
        },
        {
          "internalType": "bytes",
          "name": "data",
          "type": "bytes"
        }
      ],
      "name": "mintBatch",
      "outputs": [],
      "stateMutability": "nonpayable",
      "type": "function"
    }
  ],
  "bytecode": "0x60806040523480156200001157600080fd5b506040516200565538038062005655833981810160405281019062000037919062000ad4565b6040518060800160405280605a8152602001620055fb605a913962000062816200010460201b60201c565b5062000083620000776200012060201b60201c565b6200012860201b60201c565b6000600360146101000a81548160ff0219169083151502179055508160059080519060200190620000b692919062000887565b508060069080519060200190620000cf92919062000887565b506000600781905550620000fc3360018060405180602001604052806000815250620001ee60201b60201c565b50506200126e565b80600290805190602001906200011c92919062000887565b5050565b600033905090565b6000600360009054906101000a900473ffffffffffffffffffffffffffffffffffffffff16905081600360006101000a81548173ffffffffffffffffffffffffffffffffffffffff021916908373ffffffffffffffffffffffffffffffffffffffff1602179055508173ffffffffffffffffffffffffffffffffffffffff168173ffffffffffffffffffffffffffffffffffffffff167f8be0079c531659141344cd1fd0a4f28419497f9722a3daafe3b4186f6b6457e060405160405180910390a35050565b600073ffffffffffffffffffffffffffffffffffffffff168473ffffffffffffffffffffffffffffffffffffffff16141562000261576040517f08c379a0000000000000000000000000000000000000000000000000000000008152600401620002589062000be0565b60405180910390fd5b6000620002736200012060201b60201c565b9050620002ac816000876200028e88620003b360201b60201c565b6200029f88620003b360201b60201c565b876200043460201b60201c565b8260008086815260200190815260200160002060008773ffffffffffffffffffffffffffffffffffffffff1673ffffffffffffffffffffffffffffffffffffffff16815260200190815260200160002060008282546200030d919062000c3b565b925050819055508473ffffffffffffffffffffffffffffffffffffffff16600073ffffffffffffffffffffffffffffffffffffffff168273ffffffffffffffffffffffffffffffffffffffff167fc3d58168c5ae7397731d063d5bbf3d657854427343f4c083240f7aacaa2d0f6287876040516200038d92919062000ca9565b60405180910390a4620003ac81600087878787620004aa60201b60201c565b5050505050565b60606000600167ffffffffffffffff811115620003d557620003d462000966565b5b604051908082528060200260200182016040528015620004045781602001602082028036833780820191505090505b50905082816000815181106200041f576200041e62000cd6565b5b60200260200101818152505080915050919050565b62000444620006a460201b60201c565b1562000487576040517f08c379a00000000000000000000000000000000000000000000000000000000081526004016200047e9062000d55565b60405180910390fd5b620004a2868686868686620006bb60201b620010cf1760201c565b505050505050565b620004d68473ffffffffffffffffffffffffffffffffffffffff166200085c60201b620012491760201c565b156200069c578373ffffffffffffffffffffffffffffffffffffffff1663f23a6e6187878686866040518663ffffffff1660e01b81526004016200051f95949392919062000e19565b6020604051808303816000875af19250505080156200055e57506040513d601f19601f820116820180604052508101906200055b919062000eda565b60015b62000610576200056d62000f19565b806308c379a01415620005d157506200058562000f3e565b80620005925750620005d3565b806040517f08c379a0000000000000000000000000000000000000000000000000000000008152600401620005c891906200102c565b60405180910390fd5b505b6040517f08c379a00000000000000000000000000000000000000000000000000000000081526004016200060790620010c6565b60405180910390fd5b63f23a6e6160e01b7bffffffffffffffffffffffffffffffffffffffffffffffffffffffff1916817bffffffffffffffffffffffffffffffffffffffffffffffffffffffff1916146200069a576040517f08c379a000000000000000000000000000000000000000000000000000000000815260040162000691906200115e565b60405180910390fd5b505b505050505050565b6000600360149054906101000a900460ff16905090565b620006d68686868686866200087f60201b6200126c1760201c565b600073ffffffffffffffffffffffffffffffffffffffff168573ffffffffffffffffffffffffffffffffffffffff161415620007955760005b835181101562000793578281815181106200072f576200072e62000cd6565b5b60200260200101516004600086848151811062000751576200075062000cd6565b5b60200260200101518152602001908152602001600020600082825462000778919062000c3b565b92505081905550806200078b9062001180565b90506200070f565b505b600073ffffffffffffffffffffffffffffffffffffffff168473ffffffffffffffffffffffffffffffffffffffff161415620008545760005b83518110156200085257828181518110620007ee57620007ed62000cd6565b5b60200260200101516004600086848151811062000810576200080f62000cd6565b5b602002602001015181526020019081526020016000206000828254620008379190620011ce565b92505081905550806200084a9062001180565b9050620007ce565b505b505050505050565b6000808273ffffffffffffffffffffffffffffffffffffffff163b119050919050565b505050505050565b828054620008959062001238565b90600052602060002090601f016020900481019282620008b9576000855562000905565b82601f10620008d457805160ff191683800117855562000905565b8280016001018555821562000905579182015b8281111562000904578251825591602001919060010190620008e7565b5b50905062000914919062000918565b5090565b5b808211156200093357600081600090555060010162000919565b5090565b6000604051905090565b600080fd5b600080fd5b600080fd5b600080fd5b6000601f19601f8301169050919050565b7f4e487b7100000000000000000000000000000000000000000000000000000000600052604160045260246000fd5b620009a08262000955565b810181811067ffffffffffffffff82111715620009c257620009c162000966565b5b80604052505050565b6000620009d762000937565b9050620009e5828262000995565b919050565b600067ffffffffffffffff82111562000a085762000a0762000966565b5b62000a138262000955565b9050602081019050919050565b60005b8381101562000a4057808201518184015260208101905062000a23565b8381111562000a50576000848401525b50505050565b600062000a6d62000a6784620009ea565b620009cb565b90508281526020810184848401111562000a8c5762000a8b62000950565b5b62000a9984828562000a20565b509392505050565b600082601f83011262000ab95762000ab86200094b565b5b815162000acb84826020860162000a56565b91505092915050565b6000806040838503121562000aee5762000aed62000941565b5b600083015167ffffffffffffffff81111562000b0f5762000b0e62000946565b5b62000b1d8582860162000aa1565b925050602083015167ffffffffffffffff81111562000b415762000b4062000946565b5b62000b4f8582860162000aa1565b9150509250929050565b600082825260208201905092915050565b7f455243313135353a206d696e7420746f20746865207a65726f2061646472657360008201527f7300000000000000000000000000000000000000000000000000000000000000602082015250565b600062000bc860218362000b59565b915062000bd58262000b6a565b604082019050919050565b6000602082019050818103600083015262000bfb8162000bb9565b9050919050565b6000819050919050565b7f4e487b7100000000000000000000000000000000000000000000000000000000600052601160045260246000fd5b600062000c488262000c02565b915062000c558362000c02565b9250827fffffffffffffffffffffffffffffffffffffffffffffffffffffffffffffffff0382111562000c8d5762000c8c62000c0c565b5b828201905092915050565b62000ca38162000c02565b82525050565b600060408201905062000cc0600083018562000c98565b62000ccf602083018462000c98565b9392505050565b7f4e487b7100000000000000000000000000000000000000000000000000000000600052603260045260246000fd5b7f5061757361626c653a2070617573656400000000000000000000000000000000600082015250565b600062000d3d60108362000b59565b915062000d4a8262000d05565b602082019050919050565b6000602082019050818103600083015262000d708162000d2e565b9050919050565b600073ffffffffffffffffffffffffffffffffffffffff82169050919050565b600062000da48262000d77565b9050919050565b62000db68162000d97565b82525050565b600081519050919050565b600082825260208201905092915050565b600062000de58262000dbc565b62000df1818562000dc7565b935062000e0381856020860162000a20565b62000e0e8162000955565b840191505092915050565b600060a08201905062000e30600083018862000dab565b62000e3f602083018762000dab565b62000e4e604083018662000c98565b62000e5d606083018562000c98565b818103608083015262000e71818462000dd8565b90509695505050505050565b60007fffffffff0000000000000000000000000000000000000000000000000000000082169050919050565b62000eb48162000e7d565b811462000ec057600080fd5b50565b60008151905062000ed48162000ea9565b92915050565b60006020828403121562000ef35762000ef262000941565b5b600062000f038482850162000ec3565b91505092915050565b60008160e01c9050919050565b600060033d111562000f3b5760046000803e62000f3860005162000f0c565b90505b90565b600060443d101562000f505762000fdd565b62000f5a62000937565b60043d036004823e80513d602482011167ffffffffffffffff8211171562000f8457505062000fdd565b808201805167ffffffffffffffff81111562000fa4575050505062000fdd565b80602083010160043d03850181111562000fc357505050505062000fdd565b62000fd48260200185018662000995565b82955050505050505b90565b600081519050919050565b600062000ff88262000fe0565b62001004818562000b59565b93506200101681856020860162000a20565b620010218162000955565b840191505092915050565b6000602082019050818103600083015262001048818462000feb565b905092915050565b7f455243313135353a207472616e7366657220746f206e6f6e204552433131353560008201527f526563656976657220696d706c656d656e746572000000000000000000000000602082015250565b6000620010ae60348362000b59565b9150620010bb8262001050565b604082019050919050565b60006020820190508181036000830152620010e1816200109f565b9050919050565b7f455243313135353a204552433131353552656365697665722072656a6563746560008201527f6420746f6b656e73000000000000000000000000000000000000000000000000602082015250565b60006200114660288362000b59565b91506200115382620010e8565b604082019050919050565b60006020820190508181036000830152620011798162001137565b9050919050565b60006200118d8262000c02565b91507fffffffffffffffffffffffffffffffffffffffffffffffffffffffffffffffff821415620011c357620011c262000c0c565b5b600182019050919050565b6000620011db8262000c02565b9150620011e88362000c02565b925082821015620011fe57620011fd62000c0c565b5b828203905092915050565b7f4e487b7100000000000000000000000000000000000000000000000000000000600052602260045260246000fd5b600060028204905060018216806200125157607f821691505b6020821081141562001268576200126762001209565b5b50919050565b61437d806200127e6000396000f3fe608060405234801561001057600080fd5b50600436106101575760003560e01c8063715018a6116100c3578063a22cb4651161007c578063a22cb4651461038c578063bd85b039146103a8578063e985e9c5146103d8578063f242432a14610408578063f2fde38b14610424578063f5298aca1461044057610157565b8063715018a614610302578063731133e91461030c57806378a89567146103285780638456cb59146103465780638da5cb5b1461035057806395d89b411461036e57610157565b80632eb2c2d6116101155780632eb2c2d6146102425780633f4ba83a1461025e5780634e1273f4146102685780634f558e79146102985780635c975abb146102c85780636b20c454146102e657610157565b8062fdd58e1461015c57806301ffc9a71461018c57806302fe5305146101bc57806306fdde03146101d85780630e89341c146101f65780631f7fdffa14610226575b600080fd5b61017660048036038101906101719190612a63565b61045c565b6040516101839190612ab2565b60405180910390f35b6101a660048036038101906101a19190612b25565b610525565b6040516101b39190612b6d565b60405180910390f35b6101d660048036038101906101d19190612cce565b610607565b005b6101e061068f565b6040516101ed9190612d9f565b60405180910390f35b610210600480360381019061020b9190612dc1565b61071d565b60405161021d9190612d9f565b60405180910390f35b610240600480360381019061023b9190612f57565b6107b1565b005b61025c60048036038101906102579190613012565b610854565b005b6102666108f5565b005b610282600480360381019061027d91906131a4565b61097b565b60405161028f91906132da565b60405180910390f35b6102b260048036038101906102ad9190612dc1565b610a94565b6040516102bf9190612b6d565b60405180910390f35b6102d0610aa8565b6040516102dd9190612b6d565b60405180910390f35b61030060048036038101906102fb91906132fc565b610abf565b005b61030a610b5c565b005b61032660048036038101906103219190613387565b610be4565b005b610330610c8a565b60405161033d9190612ab2565b60405180910390f35b61034e610c94565b005b610358610d1a565b6040516103659190613419565b60405180910390f35b610376610d44565b6040516103839190612d9f565b60405180910390f35b6103a660048036038101906103a19190613460565b610dd2565b005b6103c260048036038101906103bd9190612dc1565b610de8565b6040516103cf9190612ab2565b60405180910390f35b6103f260048036038101906103ed91906134a0565b610e05565b6040516103ff9190612b6d565b60405180910390f35b610422600480360381019061041d91906134e0565b610e99565b005b61043e60048036038101906104399190613577565b610f3a565b005b61045a600480360381019061045591906135a4565b611032565b005b60008073ffffffffffffffffffffffffffffffffffffffff168373ffffffffffffffffffffffffffffffffffffffff1614156104cd576040517f08c379a00000000000000000000000000000000000000000000000000000000081526004016104c490613669565b60405180910390fd5b60008083815260200190815260200160002060008473ffffffffffffffffffffffffffffffffffffffff1673ffffffffffffffffffffffffffffffffffffffff16815260200190815260200160002054905092915050565b60007fd9b67a26000000000000000000000000000000000000000000000000000000007bffffffffffffffffffffffffffffffffffffffffffffffffffffffff1916827bffffffffffffffffffffffffffffffffffffffffffffffffffffffff191614806105f057507f0e89341c000000000000000000000000000000000000000000000000000000007bffffffffffffffffffffffffffffffffffffffffffffffffffffffff1916827bffffffffffffffffffffffffffffffffffffffffffffffffffffffff1916145b8061060057506105ff82611274565b5b9050919050565b61060f6112de565b73ffffffffffffffffffffffffffffffffffffffff1661062d610d1a565b73ffffffffffffffffffffffffffffffffffffffff1614610683576040517f08c379a000000000000000000000000000000000000000000000000000000000815260040161067a906136d5565b60405180910390fd5b61068c816112e6565b50565b6005805461069c90613724565b80601f01602080910402602001604051908101604052809291908181526020018280546106c890613724565b80156107155780601f106106ea57610100808354040283529160200191610715565b820191906000526020600020905b8154815290600101906020018083116106f857829003601f168201915b505050505081565b60606002805461072c90613724565b80601f016020809104026020016040519081016040528092919081815260200182805461075890613724565b80156107a55780601f1061077a576101008083540402835291602001916107a5565b820191906000526020600020905b81548152906001019060200180831161078857829003601f168201915b50505050509050919050565b6107b96112de565b73ffffffffffffffffffffffffffffffffffffffff166107d7610d1a565b73ffffffffffffffffffffffffffffffffffffffff161461082d576040517f08c379a0000000000000000000000000000000000000000000000000000000008152600401610824906136d5565b60405180910390fd5b61083984848484611300565b82516007546108489190613785565b60078190555050505050565b61085c6112de565b73ffffffffffffffffffffffffffffffffffffffff168573ffffffffffffffffffffffffffffffffffffffff1614806108a257506108a18561089c6112de565b610e05565b5b6108e1576040517f08c379a00000000000000000000000000000000000000000000000000000000081526004016108d89061384d565b60405180910390fd5b6108ee858585858561151e565b5050505050565b6108fd6112de565b73ffffffffffffffffffffffffffffffffffffffff1661091b610d1a565b73ffffffffffffffffffffffffffffffffffffffff1614610971576040517f08c379a0000000000000000000000000000000000000000000000000000000008152600401610968906136d5565b60405180910390fd5b610979611832565b565b606081518351146109c1576040517f08c379a00000000000000000000000000000000000000000000000000000000081526004016109b8906138df565b60405180910390fd5b6000835167ffffffffffffffff8111156109de576109dd612ba3565b5b604051908082528060200260200182016040528015610a0c5781602001602082028036833780820191505090505b50905060005b8451811015610a8957610a59858281518110610a3157610a306138ff565b5b6020026020010151858381518110610a4c57610a4b6138ff565b5b602002602001015161045c565b828281518110610a6c57610a6b6138ff565b5b60200260200101818152505080610a829061392e565b9050610a12565b508091505092915050565b600080610aa083610de8565b119050919050565b6000600360149054906101000a900460ff16905090565b610ac76112de565b73ffffffffffffffffffffffffffffffffffffffff168373ffffffffffffffffffffffffffffffffffffffff161480610b0d5750610b0c83610b076112de565b610e05565b5b610b4c576040517f08c379a0000000000000000000000000000000000000000000000000000000008152600401610b43906139e9565b60405180910390fd5b610b578383836118d4565b505050565b610b646112de565b73ffffffffffffffffffffffffffffffffffffffff16610b82610d1a565b73ffffffffffffffffffffffffffffffffffffffff1614610bd8576040517f08c379a0000000000000000000000000000000000000000000000000000000008152600401610bcf906136d5565b60405180910390fd5b610be26000611b85565b565b610bec6112de565b73ffffffffffffffffffffffffffffffffffffffff16610c0a610d1a565b73ffffffffffffffffffffffffffffffffffffffff1614610c60576040517f08c379a0000000000000000000000000000000000000000000000000000000008152600401610c57906136d5565b60405180910390fd5b610c6c84848484611c4b565b60076000815480929190610c7f9061392e565b919050555050505050565b6000600754905090565b610c9c6112de565b73ffffffffffffffffffffffffffffffffffffffff16610cba610d1a565b73ffffffffffffffffffffffffffffffffffffffff1614610d10576040517f08c379a0000000000000000000000000000000000000000000000000000000008152600401610d07906136d5565b60405180910390fd5b610d18611de1565b565b6000600360009054906101000a900473ffffffffffffffffffffffffffffffffffffffff16905090565b60068054610d5190613724565b80601f0160208091040260200160405190810160405280929190818152602001828054610d7d90613724565b8015610dca5780601f10610d9f57610100808354040283529160200191610dca565b820191906000526020600020905b815481529060010190602001808311610dad57829003601f168201915b505050505081565b610de4610ddd6112de565b8383611e84565b5050565b600060046000838152602001908152602001600020549050919050565b6000600160008473ffffffffffffffffffffffffffffffffffffffff1673ffffffffffffffffffffffffffffffffffffffff16815260200190815260200160002060008373ffffffffffffffffffffffffffffffffffffffff1673ffffffffffffffffffffffffffffffffffffffff16815260200190815260200160002060009054906101000a900460ff16905092915050565b610ea16112de565b73ffffffffffffffffffffffffffffffffffffffff168573ffffffffffffffffffffffffffffffffffffffff161480610ee75750610ee685610ee16112de565b610e05565b5b610f26576040517f08c379a0000000000000000000000000000000000000000000000000000000008152600401610f1d906139e9565b60405180910390fd5b610f338585858585611ff1565b5050505050565b610f426112de565b73ffffffffffffffffffffffffffffffffffffffff16610f60610d1a565b73ffffffffffffffffffffffffffffffffffffffff1614610fb6576040517f08c379a0000000000000000000000000000000000000000000000000000000008152600401610fad906136d5565b60405180910390fd5b600073ffffffffffffffffffffffffffffffffffffffff168173ffffffffffffffffffffffffffffffffffffffff161415611026576040517f08c379a000000000000000000000000000000000000000000000000000000000815260040161101d90613a7b565b60405180910390fd5b61102f81611b85565b50565b61103a6112de565b73ffffffffffffffffffffffffffffffffffffffff168373ffffffffffffffffffffffffffffffffffffffff161480611080575061107f8361107a6112de565b610e05565b5b6110bf576040517f08c379a00000000000000000000000000000000000000000000000000000000081526004016110b6906139e9565b60405180910390fd5b6110ca838383612273565b505050565b6110dd86868686868661126c565b600073ffffffffffffffffffffffffffffffffffffffff168573ffffffffffffffffffffffffffffffffffffffff16141561118f5760005b835181101561118d57828181518110611131576111306138ff565b5b6020026020010151600460008684815181106111505761114f6138ff565b5b6020026020010151815260200190815260200160002060008282546111759190613785565b92505081905550806111869061392e565b9050611115565b505b600073ffffffffffffffffffffffffffffffffffffffff168473ffffffffffffffffffffffffffffffffffffffff1614156112415760005b835181101561123f578281815181106111e3576111e26138ff565b5b602002602001015160046000868481518110611202576112016138ff565b5b6020026020010151815260200190815260200160002060008282546112279190613a9b565b92505081905550806112389061392e565b90506111c7565b505b505050505050565b6000808273ffffffffffffffffffffffffffffffffffffffff163b119050919050565b505050505050565b60007f01ffc9a7000000000000000000000000000000000000000000000000000000007bffffffffffffffffffffffffffffffffffffffffffffffffffffffff1916827bffffffffffffffffffffffffffffffffffffffffffffffffffffffff1916149050919050565b600033905090565b80600290805190602001906112fc929190612918565b5050565b600073ffffffffffffffffffffffffffffffffffffffff168473ffffffffffffffffffffffffffffffffffffffff161415611370576040517f08c379a000000000000000000000000000000000000000000000000000000000815260040161136790613b41565b60405180910390fd5b81518351146113b4576040517f08c379a00000000000000000000000000000000000000000000000000000000081526004016113ab90613bd3565b60405180910390fd5b60006113be6112de565b90506113cf81600087878787612490565b60005b8451811015611488578381815181106113ee576113ed6138ff565b5b602002602001015160008087848151811061140c5761140b6138ff565b5b6020026020010151815260200190815260200160002060008873ffffffffffffffffffffffffffffffffffffffff1673ffffffffffffffffffffffffffffffffffffffff168152602001908152602001600020600082825461146e9190613785565b9250508190555080806114809061392e565b9150506113d2565b508473ffffffffffffffffffffffffffffffffffffffff16600073ffffffffffffffffffffffffffffffffffffffff168273ffffffffffffffffffffffffffffffffffffffff167f4a39dc06d4c0dbc64b70af90fd698a233a518aa5d07e595d983b8c0526c8f7fb8787604051611500929190613bf3565b60405180910390a4611517816000878787876124ee565b5050505050565b8151835114611562576040517f08c379a000000000000000000000000000000000000000000000000000000000815260040161155990613bd3565b60405180910390fd5b600073ffffffffffffffffffffffffffffffffffffffff168473ffffffffffffffffffffffffffffffffffffffff1614156115d2576040517f08c379a00000000000000000000000000000000000000000000000000000000081526004016115c990613c9c565b60405180910390fd5b60006115dc6112de565b90506115ec818787878787612490565b60005b845181101561179d57600085828151811061160d5761160c6138ff565b5b60200260200101519050600085838151811061162c5761162b6138ff565b5b60200260200101519050600080600084815260200190815260200160002060008b73ffffffffffffffffffffffffffffffffffffffff1673ffffffffffffffffffffffffffffffffffffffff168152602001908152602001600020549050818110156116cd576040517f08c379a00000000000000000000000000000000000000000000000000000000081526004016116c490613d2e565b60405180910390fd5b81810360008085815260200190815260200160002060008c73ffffffffffffffffffffffffffffffffffffffff1673ffffffffffffffffffffffffffffffffffffffff168152602001908152602001600020819055508160008085815260200190815260200160002060008b73ffffffffffffffffffffffffffffffffffffffff1673ffffffffffffffffffffffffffffffffffffffff16815260200190815260200160002060008282546117829190613785565b92505081905550505050806117969061392e565b90506115ef565b508473ffffffffffffffffffffffffffffffffffffffff168673ffffffffffffffffffffffffffffffffffffffff168273ffffffffffffffffffffffffffffffffffffffff167f4a39dc06d4c0dbc64b70af90fd698a233a518aa5d07e595d983b8c0526c8f7fb8787604051611814929190613bf3565b60405180910390a461182a8187878787876124ee565b505050505050565b61183a610aa8565b611879576040517f08c379a000000000000000000000000000000000000000000000000000000000815260040161187090613d9a565b60405180910390fd5b6000600360146101000a81548160ff0219169083151502179055507f5db9ee0a495bf2e6ff9c91a7834c1ba4fdd244a5e8aa4e537bd38aeae4b073aa6118bd6112de565b6040516118ca9190613419565b60405180910390a1565b600073ffffffffffffffffffffffffffffffffffffffff168373ffffffffffffffffffffffffffffffffffffffff161415611944576040517f08c379a000000000000000000000000000000000000000000000000000000000815260040161193b90613e2c565b60405180910390fd5b8051825114611988576040517f08c379a000000000000000000000000000000000000000000000000000000000815260040161197f90613bd3565b60405180910390fd5b60006119926112de565b90506119b281856000868660405180602001604052806000815250612490565b60005b8351811015611aff5760008482815181106119d3576119d26138ff565b5b6020026020010151905060008483815181106119f2576119f16138ff565b5b60200260200101519050600080600084815260200190815260200160002060008973ffffffffffffffffffffffffffffffffffffffff1673ffffffffffffffffffffffffffffffffffffffff16815260200190815260200160002054905081811015611a93576040517f08c379a0000000000000000000000000000000000000000000000000000000008152600401611a8a90613ebe565b60405180910390fd5b81810360008085815260200190815260200160002060008a73ffffffffffffffffffffffffffffffffffffffff1673ffffffffffffffffffffffffffffffffffffffff168152602001908152602001600020819055505050508080611af79061392e565b9150506119b5565b50600073ffffffffffffffffffffffffffffffffffffffff168473ffffffffffffffffffffffffffffffffffffffff168273ffffffffffffffffffffffffffffffffffffffff167f4a39dc06d4c0dbc64b70af90fd698a233a518aa5d07e595d983b8c0526c8f7fb8686604051611b77929190613bf3565b60405180910390a450505050565b6000600360009054906101000a900473ffffffffffffffffffffffffffffffffffffffff16905081600360006101000a81548173ffffffffffffffffffffffffffffffffffffffff021916908373ffffffffffffffffffffffffffffffffffffffff1602179055508173ffffffffffffffffffffffffffffffffffffffff168173ffffffffffffffffffffffffffffffffffffffff167f8be0079c531659141344cd1fd0a4f28419497f9722a3daafe3b4186f6b6457e060405160405180910390a35050565b600073ffffffffffffffffffffffffffffffffffffffff168473ffffffffffffffffffffffffffffffffffffffff161415611cbb576040517f08c379a0000000000000000000000000000000000000000000000000000000008152600401611cb290613b41565b60405180910390fd5b6000611cc56112de565b9050611ce681600087611cd7886126c6565b611ce0886126c6565b87612490565b8260008086815260200190815260200160002060008773ffffffffffffffffffffffffffffffffffffffff1673ffffffffffffffffffffffffffffffffffffffff1681526020019081526020016000206000828254611d459190613785565b925050819055508473ffffffffffffffffffffffffffffffffffffffff16600073ffffffffffffffffffffffffffffffffffffffff168273ffffffffffffffffffffffffffffffffffffffff167fc3d58168c5ae7397731d063d5bbf3d657854427343f4c083240f7aacaa2d0f628787604051611dc3929190613ede565b60405180910390a4611dda81600087878787612740565b5050505050565b611de9610aa8565b15611e29576040517f08c379a0000000000000000000000000000000000000000000000000000000008152600401611e2090613f53565b60405180910390fd5b6001600360146101000a81548160ff0219169083151502179055507f62e78cea01bee320cd4e420270b5ea74000d11b0c9f74754ebdbfc544b05a258611e6d6112de565b604051611e7a9190613419565b60405180910390a1565b8173ffffffffffffffffffffffffffffffffffffffff168373ffffffffffffffffffffffffffffffffffffffff161415611ef3576040517f08c379a0000000000000000000000000000000000000000000000000000000008152600401611eea90613fe5565b60405180910390fd5b80600160008573ffffffffffffffffffffffffffffffffffffffff1673ffffffffffffffffffffffffffffffffffffffff16815260200190815260200160002060008473ffffffffffffffffffffffffffffffffffffffff1673ffffffffffffffffffffffffffffffffffffffff16815260200190815260200160002060006101000a81548160ff0219169083151502179055508173ffffffffffffffffffffffffffffffffffffffff168373ffffffffffffffffffffffffffffffffffffffff167f17307eab39ab6107e8899845ad3d59bd9653f200f220920489ca2b5937696c3183604051611fe49190612b6d565b60405180910390a3505050565b600073ffffffffffffffffffffffffffffffffffffffff168473ffffffffffffffffffffffffffffffffffffffff161415612061576040517f08c379a000000000000000000000000000000000000000000000000000000000815260040161205890613c9c565b60405180910390fd5b600061206b6112de565b905061208b81878761207c886126c6565b612085886126c6565b87612490565b600080600086815260200190815260200160002060008873ffffffffffffffffffffffffffffffffffffffff1673ffffffffffffffffffffffffffffffffffffffff16815260200190815260200160002054905083811015612122576040517f08c379a000000000000000000000000000000000000000000000000000000000815260040161211990613d2e565b60405180910390fd5b83810360008087815260200190815260200160002060008973ffffffffffffffffffffffffffffffffffffffff1673ffffffffffffffffffffffffffffffffffffffff168152602001908152602001600020819055508360008087815260200190815260200160002060008873ffffffffffffffffffffffffffffffffffffffff1673ffffffffffffffffffffffffffffffffffffffff16815260200190815260200160002060008282546121d79190613785565b925050819055508573ffffffffffffffffffffffffffffffffffffffff168773ffffffffffffffffffffffffffffffffffffffff168373ffffffffffffffffffffffffffffffffffffffff167fc3d58168c5ae7397731d063d5bbf3d657854427343f4c083240f7aacaa2d0f628888604051612254929190613ede565b60405180910390a461226a828888888888612740565b50505050505050565b600073ffffffffffffffffffffffffffffffffffffffff168373ffffffffffffffffffffffffffffffffffffffff1614156122e3576040517f08c379a00000000000000000000000000000000000000000000000000000000081526004016122da90613e2c565b60405180910390fd5b60006122ed6112de565b905061231d818560006122ff876126c6565b612308876126c6565b60405180602001604052806000815250612490565b600080600085815260200190815260200160002060008673ffffffffffffffffffffffffffffffffffffffff1673ffffffffffffffffffffffffffffffffffffffff168152602001908152602001600020549050828110156123b4576040517f08c379a00000000000000000000000000000000000000000000000000000000081526004016123ab90613ebe565b60405180910390fd5b82810360008086815260200190815260200160002060008773ffffffffffffffffffffffffffffffffffffffff1673ffffffffffffffffffffffffffffffffffffffff16815260200190815260200160002081905550600073ffffffffffffffffffffffffffffffffffffffff168573ffffffffffffffffffffffffffffffffffffffff168373ffffffffffffffffffffffffffffffffffffffff167fc3d58168c5ae7397731d063d5bbf3d657854427343f4c083240f7aacaa2d0f628787604051612481929190613ede565b60405180910390a45050505050565b612498610aa8565b156124d8576040517f08c379a00000000000000000000000000000000000000000000000000000000081526004016124cf90613f53565b60405180910390fd5b6124e68686868686866110cf565b505050505050565b61250d8473ffffffffffffffffffffffffffffffffffffffff16611249565b156126be578373ffffffffffffffffffffffffffffffffffffffff1663bc197c8187878686866040518663ffffffff1660e01b815260040161255395949392919061405a565b6020604051808303816000875af192505050801561258f57506040513d601f19601f8201168201806040525081019061258c91906140d7565b60015b6126355761259b614111565b806308c379a014156125f857506125b0614133565b806125bb57506125fa565b806040517f08c379a00000000000000000000000000000000000000000000000000000000081526004016125ef9190612d9f565b60405180910390fd5b505b6040517f08c379a000000000000000000000000000000000000000000000000000000000815260040161262c9061423b565b60405180910390fd5b63bc197c8160e01b7bffffffffffffffffffffffffffffffffffffffffffffffffffffffff1916817bffffffffffffffffffffffffffffffffffffffffffffffffffffffff1916146126bc576040517f08c379a00000000000000000000000000000000000000000000000000000000081526004016126b3906142cd565b60405180910390fd5b505b505050505050565b60606000600167ffffffffffffffff8111156126e5576126e4612ba3565b5b6040519080825280602002602001820160405280156127135781602001602082028036833780820191505090505b509050828160008151811061272b5761272a6138ff565b5b60200260200101818152505080915050919050565b61275f8473ffffffffffffffffffffffffffffffffffffffff16611249565b15612910578373ffffffffffffffffffffffffffffffffffffffff1663f23a6e6187878686866040518663ffffffff1660e01b81526004016127a59594939291906142ed565b6020604051808303816000875af19250505080156127e157506040513d601f19601f820116820180604052508101906127de91906140d7565b60015b612887576127ed614111565b806308c379a0141561284a5750612802614133565b8061280d575061284c565b806040517f08c379a00000000000000000000000000000000000000000000000000000000081526004016128419190612d9f565b60405180910390fd5b505b6040517f08c379a000000000000000000000000000000000000000000000000000000000815260040161287e9061423b565b60405180910390fd5b63f23a6e6160e01b7bffffffffffffffffffffffffffffffffffffffffffffffffffffffff1916817bffffffffffffffffffffffffffffffffffffffffffffffffffffffff19161461290e576040517f08c379a0000000000000000000000000000000000000000000000000000000008152600401612905906142cd565b60405180910390fd5b505b505050505050565b82805461292490613724565b90600052602060002090601f016020900481019282612946576000855561298d565b82601f1061295f57805160ff191683800117855561298d565b8280016001018555821561298d579182015b8281111561298c578251825591602001919060010190612971565b5b50905061299a919061299e565b5090565b5b808211156129b757600081600090555060010161299f565b5090565b6000604051905090565b600080fd5b600080fd5b600073ffffffffffffffffffffffffffffffffffffffff82169050919050565b60006129fa826129cf565b9050919050565b612a0a816129ef565b8114612a1557600080fd5b50565b600081359050612a2781612a01565b92915050565b6000819050919050565b612a4081612a2d565b8114612a4b57600080fd5b50565b600081359050612a5d81612a37565b92915050565b60008060408385031215612a7a57612a796129c5565b5b6000612a8885828601612a18565b9250506020612a9985828601612a4e565b9150509250929050565b612aac81612a2d565b82525050565b6000602082019050612ac76000830184612aa3565b92915050565b60007fffffffff0000000000000000000000000000000000000000000000000000000082169050919050565b612b0281612acd565b8114612b0d57600080fd5b50565b600081359050612b1f81612af9565b92915050565b600060208284031215612b3b57612b3a6129c5565b5b6000612b4984828501612b10565b91505092915050565b60008115159050919050565b612b6781612b52565b82525050565b6000602082019050612b826000830184612b5e565b92915050565b600080fd5b600080fd5b6000601f19601f8301169050919050565b7f4e487b7100000000000000000000000000000000000000000000000000000000600052604160045260246000fd5b612bdb82612b92565b810181811067ffffffffffffffff82111715612bfa57612bf9612ba3565b5b80604052505050565b6000612c0d6129bb565b9050612c198282612bd2565b919050565b600067ffffffffffffffff821115612c3957612c38612ba3565b5b612c4282612b92565b9050602081019050919050565b82818337600083830152505050565b6000612c71612c6c84612c1e565b612c03565b905082815260208101848484011115612c8d57612c8c612b8d565b5b612c98848285612c4f565b509392505050565b600082601f830112612cb557612cb4612b88565b5b8135612cc5848260208601612c5e565b91505092915050565b600060208284031215612ce457612ce36129c5565b5b600082013567ffffffffffffffff811115612d0257612d016129ca565b5b612d0e84828501612ca0565b91505092915050565b600081519050919050565b600082825260208201905092915050565b60005b83811015612d51578082015181840152602081019050612d36565b83811115612d60576000848401525b50505050565b6000612d7182612d17565b612d7b8185612d22565b9350612d8b818560208601612d33565b612d9481612b92565b840191505092915050565b60006020820190508181036000830152612db98184612d66565b905092915050565b600060208284031215612dd757612dd66129c5565b5b6000612de584828501612a4e565b91505092915050565b600067ffffffffffffffff821115612e0957612e08612ba3565b5b602082029050602081019050919050565b600080fd5b6000612e32612e2d84612dee565b612c03565b90508083825260208201905060208402830185811115612e5557612e54612e1a565b5b835b81811015612e7e5780612e6a8882612a4e565b845260208401935050602081019050612e57565b5050509392505050565b600082601f830112612e9d57612e9c612b88565b5b8135612ead848260208601612e1f565b91505092915050565b600067ffffffffffffffff821115612ed157612ed0612ba3565b5b612eda82612b92565b9050602081019050919050565b6000612efa612ef584612eb6565b612c03565b905082815260208101848484011115612f1657612f15612b8d565b5b612f21848285612c4f565b509392505050565b600082601f830112612f3e57612f3d612b88565b5b8135612f4e848260208601612ee7565b91505092915050565b60008060008060808587031215612f7157612f706129c5565b5b6000612f7f87828801612a18565b945050602085013567ffffffffffffffff811115612fa057612f9f6129ca565b5b612fac87828801612e88565b935050604085013567ffffffffffffffff811115612fcd57612fcc6129ca565b5b612fd987828801612e88565b925050606085013567ffffffffffffffff811115612ffa57612ff96129ca565b5b61300687828801612f29565b91505092959194509250565b600080600080600060a0868803121561302e5761302d6129c5565b5b600061303c88828901612a18565b955050602061304d88828901612a18565b945050604086013567ffffffffffffffff81111561306e5761306d6129ca565b5b61307a88828901612e88565b935050606086013567ffffffffffffffff81111561309b5761309a6129ca565b5b6130a788828901612e88565b925050608086013567ffffffffffffffff8111156130c8576130c76129ca565b5b6130d488828901612f29565b9150509295509295909350565b600067ffffffffffffffff8211156130fc576130fb612ba3565b5b602082029050602081019050919050565b600061312061311b846130e1565b612c03565b9050808382526020820190506020840283018581111561314357613142612e1a565b5b835b8181101561316c57806131588882612a18565b845260208401935050602081019050613145565b5050509392505050565b600082601f83011261318b5761318a612b88565b5b813561319b84826020860161310d565b91505092915050565b600080604083850312156131bb576131ba6129c5565b5b600083013567ffffffffffffffff8111156131d9576131d86129ca565b5b6131e585828601613176565b925050602083013567ffffffffffffffff811115613206576132056129ca565b5b61321285828601612e88565b9150509250929050565b600081519050919050565b600082825260208201905092915050565b6000819050602082019050919050565b61325181612a2d565b82525050565b60006132638383613248565b60208301905092915050565b6000602082019050919050565b60006132878261321c565b6132918185613227565b935061329c83613238565b8060005b838110156132cd5781516132b48882613257565b97506132bf8361326f565b9250506001810190506132a0565b5085935050505092915050565b600060208201905081810360008301526132f4818461327c565b905092915050565b600080600060608486031215613315576133146129c5565b5b600061332386828701612a18565b935050602084013567ffffffffffffffff811115613344576133436129ca565b5b61335086828701612e88565b925050604084013567ffffffffffffffff811115613371576133706129ca565b5b61337d86828701612e88565b9150509250925092565b600080600080608085870312156133a1576133a06129c5565b5b60006133af87828801612a18565b94505060206133c087828801612a4e565b93505060406133d187828801612a4e565b925050606085013567ffffffffffffffff8111156133f2576133f16129ca565b5b6133fe87828801612f29565b91505092959194509250565b613413816129ef565b82525050565b600060208201905061342e600083018461340a565b92915050565b61343d81612b52565b811461344857600080fd5b50565b60008135905061345a81613434565b92915050565b60008060408385031215613477576134766129c5565b5b600061348585828601612a18565b92505060206134968582860161344b565b9150509250929050565b600080604083850312156134b7576134b66129c5565b5b60006134c585828601612a18565b92505060206134d685828601612a18565b9150509250929050565b600080600080600060a086880312156134fc576134fb6129c5565b5b600061350a88828901612a18565b955050602061351b88828901612a18565b945050604061352c88828901612a4e565b935050606061353d88828901612a4e565b925050608086013567ffffffffffffffff81111561355e5761355d6129ca565b5b61356a88828901612f29565b9150509295509295909350565b60006020828403121561358d5761358c6129c5565b5b600061359b84828501612a18565b91505092915050565b6000806000606084860312156135bd576135bc6129c5565b5b60006135cb86828701612a18565b93505060206135dc86828701612a4e565b92505060406135ed86828701612a4e565b9150509250925092565b7f455243313135353a2062616c616e636520717565727920666f7220746865207a60008201527f65726f2061646472657373000000000000000000000000000000000000000000602082015250565b6000613653602b83612d22565b915061365e826135f7565b604082019050919050565b6000602082019050818103600083015261368281613646565b9050919050565b7f4f776e61626c653a2063616c6c6572206973206e6f7420746865206f776e6572600082015250565b60006136bf602083612d22565b91506136ca82613689565b602082019050919050565b600060208201905081810360008301526136ee816136b2565b9050919050565b7f4e487b7100000000000000000000000000000000000000000000000000000000600052602260045260246000fd5b6000600282049050600182168061373c57607f821691505b602082108114156137505761374f6136f5565b5b50919050565b7f4e487b7100000000000000000000000000000000000000000000000000000000600052601160045260246000fd5b600061379082612a2d565b915061379b83612a2d565b9250827fffffffffffffffffffffffffffffffffffffffffffffffffffffffffffffffff038211156137d0576137cf613756565b5b828201905092915050565b7f455243313135353a207472616e736665722063616c6c6572206973206e6f742060008201527f6f776e6572206e6f7220617070726f7665640000000000000000000000000000602082015250565b6000613837603283612d22565b9150613842826137db565b604082019050919050565b600060208201905081810360008301526138668161382a565b9050919050565b7f455243313135353a206163636f756e747320616e6420696473206c656e67746860008201527f206d69736d617463680000000000000000000000000000000000000000000000602082015250565b60006138c9602983612d22565b91506138d48261386d565b604082019050919050565b600060208201905081810360008301526138f8816138bc565b9050919050565b7f4e487b7100000000000000000000000000000000000000000000000000000000600052603260045260246000fd5b600061393982612a2d565b91507fffffffffffffffffffffffffffffffffffffffffffffffffffffffffffffffff82141561396c5761396b613756565b5b600182019050919050565b7f455243313135353a2063616c6c6572206973206e6f74206f776e6572206e6f7260008201527f20617070726f7665640000000000000000000000000000000000000000000000602082015250565b60006139d3602983612d22565b91506139de82613977565b604082019050919050565b60006020820190508181036000830152613a02816139c6565b9050919050565b7f4f776e61626c653a206e6577206f776e657220697320746865207a65726f206160008201527f6464726573730000000000000000000000000000000000000000000000000000602082015250565b6000613a65602683612d22565b9150613a7082613a09565b604082019050919050565b60006020820190508181036000830152613a9481613a58565b9050919050565b6000613aa682612a2d565b9150613ab183612a2d565b925082821015613ac457613ac3613756565b5b828203905092915050565b7f455243313135353a206d696e7420746f20746865207a65726f2061646472657360008201527f7300000000000000000000000000000000000000000000000000000000000000602082015250565b6000613b2b602183612d22565b9150613b3682613acf565b604082019050919050565b60006020820190508181036000830152613b5a81613b1e565b9050919050565b7f455243313135353a2069647320616e6420616d6f756e7473206c656e6774682060008201527f6d69736d61746368000000000000000000000000000000000000000000000000602082015250565b6000613bbd602883612d22565b9150613bc882613b61565b604082019050919050565b60006020820190508181036000830152613bec81613bb0565b9050919050565b60006040820190508181036000830152613c0d818561327c565b90508181036020830152613c21818461327c565b90509392505050565b7f455243313135353a207472616e7366657220746f20746865207a65726f20616460008201527f6472657373000000000000000000000000000000000000000000000000000000602082015250565b6000613c86602583612d22565b9150613c9182613c2a565b604082019050919050565b60006020820190508181036000830152613cb581613c79565b9050919050565b7f455243313135353a20696e73756666696369656e742062616c616e636520666f60008201527f72207472616e7366657200000000000000000000000000000000000000000000602082015250565b6000613d18602a83612d22565b9150613d2382613cbc565b604082019050919050565b60006020820190508181036000830152613d4781613d0b565b9050919050565b7f5061757361626c653a206e6f7420706175736564000000000000000000000000600082015250565b6000613d84601483612d22565b9150613d8f82613d4e565b602082019050919050565b60006020820190508181036000830152613db381613d77565b9050919050565b7f455243313135353a206275726e2066726f6d20746865207a65726f206164647260008201527f6573730000000000000000000000000000000000000000000000000000000000602082015250565b6000613e16602383612d22565b9150613e2182613dba565b604082019050919050565b60006020820190508181036000830152613e4581613e09565b9050919050565b7f455243313135353a206275726e20616d6f756e7420657863656564732062616c60008201527f616e636500000000000000000000000000000000000000000000000000000000602082015250565b6000613ea8602483612d22565b9150613eb382613e4c565b604082019050919050565b60006020820190508181036000830152613ed781613e9b565b9050919050565b6000604082019050613ef36000830185612aa3565b613f006020830184612aa3565b9392505050565b7f5061757361626c653a2070617573656400000000000000000000000000000000600082015250565b6000613f3d601083612d22565b9150613f4882613f07565b602082019050919050565b60006020820190508181036000830152613f6c81613f30565b9050919050565b7f455243313135353a2073657474696e6720617070726f76616c2073746174757360008201527f20666f722073656c660000000000000000000000000000000000000000000000602082015250565b6000613fcf602983612d22565b9150613fda82613f73565b604082019050919050565b60006020820190508181036000830152613ffe81613fc2565b9050919050565b600081519050919050565b600082825260208201905092915050565b600061402c82614005565b6140368185614010565b9350614046818560208601612d33565b61404f81612b92565b840191505092915050565b600060a08201905061406f600083018861340a565b61407c602083018761340a565b818103604083015261408e818661327c565b905081810360608301526140a2818561327c565b905081810360808301526140b68184614021565b90509695505050505050565b6000815190506140d181612af9565b92915050565b6000602082840312156140ed576140ec6129c5565b5b60006140fb848285016140c2565b91505092915050565b60008160e01c9050919050565b600060033d11156141305760046000803e61412d600051614104565b90505b90565b600060443d1015614143576141c6565b61414b6129bb565b60043d036004823e80513d602482011167ffffffffffffffff821117156141735750506141c6565b808201805167ffffffffffffffff81111561419157505050506141c6565b80602083010160043d0385018111156141ae5750505050506141c6565b6141bd82602001850186612bd2565b82955050505050505b90565b7f455243313135353a207472616e7366657220746f206e6f6e204552433131353560008201527f526563656976657220696d706c656d656e746572000000000000000000000000602082015250565b6000614225603483612d22565b9150614230826141c9565b604082019050919050565b6000602082019050818103600083015261425481614218565b9050919050565b7f455243313135353a204552433131353552656365697665722072656a6563746560008201527f6420746f6b656e73000000000000000000000000000000000000000000000000602082015250565b60006142b7602883612d22565b91506142c28261425b565b604082019050919050565b600060208201905081810360008301526142e6816142aa565b9050919050565b600060a082019050614302600083018861340a565b61430f602083018761340a565b61431c6040830186612aa3565b6143296060830185612aa3565b818103608083015261433b8184614021565b9050969550505050505056fea264697066735822122038992033b5d571237a05737f238f17a341e68147562f4c79d7a5f6c00223a95764736f6c634300080b003368747470733a2f2f676174657761792e70696e6174612e636c6f75642f697066732f516d5456367644533867445a676343357a364d41645575593241653151534e6367736b4546747745456235774b6d2f7b69647d2e6a736f6e",
  "immutableReferences": {},
  "source": "// SPDX-License-Identifier: MIT\npragma solidity ^0.8.4;\n\nimport \"@openzeppelin/contracts/token/ERC1155/ERC1155.sol\";\nimport \"@openzeppelin/contracts/access/Ownable.sol\";\nimport \"@openzeppelin/contracts/security/Pausable.sol\";\nimport \"@openzeppelin/contracts/token/ERC1155/extensions/ERC1155Burnable.sol\";\nimport \"@openzeppelin/contracts/token/ERC1155/extensions/ERC1155Supply.sol\";\n\ncontract playGround is ERC1155, Ownable, Pausable, ERC1155Burnable, ERC1155Supply {\n    string public name;\n    string public symbol;\n    uint256 internal tokenCounter;\n\n    constructor(string memory _name, string memory _symbol) ERC1155(\"https://gateway.pinata.cloud/ipfs/QmTV6vDS8gDZgcC5z6MAdUuY2Ae1QSNcgskEFtwEEb5wKm/{id}.json\") {\n        name=_name;\n        symbol=_symbol;\n        tokenCounter =0;\n        _mint(msg.sender, 1, 1, \"\");\n\n    }\n\nfunction getTokenCount() public view returns (uint256){\n    return tokenCounter;\n}\n\n    function setURI(string memory newuri) public onlyOwner {\n        _setURI(newuri);\n    }\n\n    function pause() public onlyOwner {\n        _pause();\n    }\n\n    function unpause() public onlyOwner {\n        _unpause();\n    }\n\n    function mint(address account, uint256 id, uint256 amount, bytes memory data)\n        public\n        onlyOwner\n    {\n        _mint(account, id, amount, data);\n        tokenCounter++;\n    }\n\n    function mintBatch(address to, uint256[] memory ids, uint256[] memory amounts, bytes memory data)\n        public\n        onlyOwner\n    {\n        _mintBatch(to, ids, amounts, data);\n        tokenCounter= tokenCounter+ids.length;\n    }\n\n    function _beforeTokenTransfer(address operator, address from, address to, uint256[] memory ids, uint256[] memory amounts, bytes memory data)\n        internal\n        whenNotPaused\n        override(ERC1155, ERC1155Supply)\n    {\n        super._beforeTokenTransfer(operator, from, to, ids, amounts, data);\n    }\n}",
  "sourcePath": "/home/falcon46/Documents/projects/learn react SC integration/NftGallery/Smartcontracterc1155/contracts/playGround.sol",
  "compiler": {
    "name": "solc",
    "version": "0.8.11+commit.d7f03943.Emscripten.clang"
  },
  "schemaVersion": "3.4.4",
  "updatedAt": "2022-02-26T06:09:27.174Z",
  "networkType": "ethereum",
  "devdoc": {
    "kind": "dev",
    "methods": {
      "balanceOf(address,uint256)": {
        "details": "See {IERC1155-balanceOf}. Requirements: - `account` cannot be the zero address."
      },
      "balanceOfBatch(address[],uint256[])": {
        "details": "See {IERC1155-balanceOfBatch}. Requirements: - `accounts` and `ids` must have the same length."
      },
      "exists(uint256)": {
        "details": "Indicates whether any token exist with a given id, or not."
      },
      "isApprovedForAll(address,address)": {
        "details": "See {IERC1155-isApprovedForAll}."
      },
      "owner()": {
        "details": "Returns the address of the current owner."
      },
      "paused()": {
        "details": "Returns true if the contract is paused, and false otherwise."
      },
      "renounceOwnership()": {
        "details": "Leaves the contract without owner. It will not be possible to call `onlyOwner` functions anymore. Can only be called by the current owner. NOTE: Renouncing ownership will leave the contract without an owner, thereby removing any functionality that is only available to the owner."
      },
      "safeBatchTransferFrom(address,address,uint256[],uint256[],bytes)": {
        "details": "See {IERC1155-safeBatchTransferFrom}."
      },
      "safeTransferFrom(address,address,uint256,uint256,bytes)": {
        "details": "See {IERC1155-safeTransferFrom}."
      },
      "setApprovalForAll(address,bool)": {
        "details": "See {IERC1155-setApprovalForAll}."
      },
      "supportsInterface(bytes4)": {
        "details": "See {IERC165-supportsInterface}."
      },
      "totalSupply(uint256)": {
        "details": "Total amount of tokens in with a given id."
      },
      "transferOwnership(address)": {
        "details": "Transfers ownership of the contract to a new account (`newOwner`). Can only be called by the current owner."
      },
      "uri(uint256)": {
        "details": "See {IERC1155MetadataURI-uri}. This implementation returns the same URI for *all* token types. It relies on the token type ID substitution mechanism https://eips.ethereum.org/EIPS/eip-1155#metadata[defined in the EIP]. Clients calling this function must replace the `\\{id\\}` substring with the actual token type ID."
      }
    },
    "version": 1
  },
  "userdoc": {
    "kind": "user",
    "methods": {},
    "version": 1
  }
}